:020000040800F2
:10000000C007002001010008AF2700087B2400087A
:10001000AD2700081F030008E535000800000000B8
:100020000000000000000000000000005D2C00083F
:100030000505000800000000212B0008712F0008B2
:100040001B0100081B0100081B0100081B01000820
:100050001B0100081B0100081B0100081B01000810
:100060001B0100081B0100081B0100081B01000800
:100070001B0100081B0100081B0100081B010008F0
:100080001B0100081B0100081B0100081B010008E0
:100090001B0100081B0100081B0100081B010008D0
:1000A0001B0100081B0100081B0100081B010008C0
:1000B0001B0100081B0100081B0100081B010008B0
:1000C0001B0100081B0100081B0100081B010008A0
:1000D0001B0100081B010008AD3400081B010008CB
:1000E000070500081B0100081B010008DFF80CD001
:1000F00000F062F80048004719380008C0070020E7
:100100000648804706480047FEE7FEE7FEE7FEE7B1
:10011000FEE7FEE7FEE7FEE7FEE7FEE7E72F000863
:10012000ED000008202A04DB203A21FA02F0002129
:10013000704721FA02F3D040C2F1200291400843F7
:1001400019467047D2B201E000F8012B491EFBD2DC
:1001500070470022F6E710B513460A4604461946D2
:10016000FFF7F0FF204610BD30B505462A460B4686
:1001700012F8010B13F8014B08B1A042F8D01CB1E2
:10018000002802D06D1CF1E7284630BD30B50B4683
:10019000014600202022012409E021FA02F59D42B7
:1001A00005D303FA02F5491B04FA02F52844151E8B
:1001B000A2F10102F1DC30BD064C074D06E0E0681B
:1001C00040F0010394E8070098471034AC42F6D39E
:1001D000FFF790FFB4550008D455000870B50446E9
:1001E00000688168C943C90717D1816821F00101FE
:1001F000816000F0B7FF05460AE000BF00F0B2FFE3
:10020000401B022804D920688068C043C00706D07C
:1002100020688068C043C007F0D0002070BDA06A8D
:1002200040F01000A062E06A40F00100E0620120AE
:1002300070BD0000F8B5002604460096006881688D
:10024000C943C9072DD0816841F00101816016487A
:1002500016490068B0FBF1F000E0401E0090002855
:10026000FBD100F07FFF054616E000BF00F07AFFEB
:10027000401B022810D920688068C043C0070BD0FB
:10028000A06A40F01000A062E06A40F00100E06265
:1002900084F824600120F8BD20688068C043C0074E
:1002A000E4D10020F8BD00003000002040420F00E3
:1002B00070B514460D46064600F02BF8308000F06D
:1002C0002BF8288000F022F8208070BD3EB56946EA
:1002D000009001200190072002900B4800F080FA66
:1002E00008B100F01FF9084800F064FC64210648DA
:1002F00000F0C2FB044800F0F1FA84B2024800F0BA
:10030000B9FC20463EBD0000340000200920FFF764
:10031000DDBF0720FFF7DABF0820FFF7D7BFFEE7F2
:1003200002790168114442791144C288114402895A
:10033000408911440844704710B5044601F00EF995
:100340000349B0FBF1F16143491EFDD210BD00002D
:1003500000093D0010B52820FFF7EEFF20210448DA
:1003600000F0F6FE08B1002010BD012010BD000015
:10037000000C01401FB52022084B012120B10020B4
:100380000092CDE9010104E00320CDE90021CDE98F
:1003900002106946184600F0EBFD1FBD000C01403D
:1003A00010B50C4C2021204600F0D2FE0028F9D0D8
:1003B0002820FFF7C1FF2021204600F0C9FE0028B9
:1003C00006D02021204600F0C3FE0028F9D10120EC
:1003D00010BD0000000C014070B5002425466006E9
:1003E000040EFFF7DDFF08B144F001046D1CEDB20F
:1003F000082DF4D3204670BD70B588B004460020A7
:1004000001900290142103A8FFF7A3FE00F066F804
:10041000FFF7A0FF002841D0214D2021284600F001
:1004200097FE0028F9D02021284600F091FE0028F0
:10043000F9D100250DF10406FFF7CEFF70556D1CB4
:10044000EDB2052DF8D39DF804109DF805209DF818
:1004500006309DF807008D181E1835449DF8086079
:10046000B54215D100900FA003F0BEF89DF804002E
:1004700020709DF8050060709DF80600A0709DF842
:100480000700E0709DF808002071002008B070BDE2
:100490000EA000BF03F0A8F80120F7E70DA0F9E7D0
:1004A000000C0140B5B1C7B0CAAAB6C8A3BA25644A
:1004B0002E256425255248B5B1C7B0CEC2B6C8A313
:1004C000BA25642E2564A1E3432D2D003132330D6E
:1004D0000A0000003435360D0A00000010B5002077
:1004E000FFF748FF00222021054800F036FE1420C7
:1004F00000F04AFCBDE810400120FFF73BBF0000C0
:10050000000C0140704710B54FF4805000F024FDFE
:100510004FF4005000F020FDBDE810404FF4804043
:1005200000F01ABD72B6FEE706490020C861064811
:10053000016941F004010161016941F0400101617B
:1005400070470000A001002000200240064A002160
:10055000D16106490A6942F002020A6148610869EC
:1005600040F0400008617047A001002000200240D8
:10057000044B0022DA61044A136943F0010313615A
:1005800001807047A0010020002002401448002292
:10059000C168CB06134904D5CA6942F00202CA6198
:1005A0001022C3685B0705D5CB6943F00103CB611B
:1005B00042F00402C369DB0707D0CB6943F00403B0
:1005C000CB61C16921F00101C161A2F580710139DE
:1005D00001D0C2607047C16921F00101C16170475B
:1005E00000200240A001002070B5054600F0BAFDD1
:1005F0000646114C09E0681C07D025B100F0B2FD99
:10060000801BA84201D9032070BDE068C007F2D169
:10061000E068800601D52020E060E068C00605D4CF
:10062000E069C00702D1E068400703D5FFF7AEFFDD
:10063000012070BD002070BD002002400E4B10B59F
:100640000E491868884215D11846FFF769FED96827
:1006500081420FD10A481979417059790170D988BE
:100660000182198981815989C18106A0BDE81040A4
:1006700002F0BABF0DA0F9E700F00108CDAB3412CB
:1006800000000020466C6173683A205468726573FC
:10069000686F6C6473206C6F61646564207375634C
:1006A0006365737366756C6C790D0A00466C6173D3
:1006B000683A204E6F2076616C69642064617461D1
:1006C00020666F756E642C207573696E6720646593
:1006D0006661756C74730D0A00000000F0B589B096
:1006E0002348009023480024089441788DF8041092
:1006F00001788DF80510018AADF806108189ADF8F2
:100700000810C089ADF80A006846FFF709FE03909B
:1007100000F0EAFB184D0120CDE9065008A9049429
:1007200004A800F043FB18B114A002F05DFF10E034
:1007300010276E465FF0000405EB440136F81420E4
:100740000023012000F090FB38B1214611A002F0F7
:100750004BFF00F07FFB09B0F0BD641CB4EB570FFA
:10076000EAD300F077FB14A002F03EFFF3E70000AD
:10077000CDAB34120000002000F00108466C61731C
:10078000683A204572617365206661696C65640D25
:100790000A000000466C6173683A205772697465FC
:1007A000206661696C6564206174206F666673659C
:1007B000742025640D0A0000466C6173683A205469
:1007C00068726573686F6C6473207361766564200A
:1007D0007375636365737366756C6C790D0A0000DD
:1007E000F8B50024009490F824202546012A12D060
:1007F000012280F824204A681F23072A0DD20668A8
:10080000776B521E02EB820293409F430B6893402A
:100810001F43776319E00220F8BD06680D2A0AD24B
:10082000376BD21F02EB820293409F430B689340C9
:100830001F43376309E0F76A0D3A02EB82029340E7
:100840009F430B6893401F43F7620A6807230668BB
:100850000A2A0AD3F7680A3A02EB420293409F43FE
:100860008B6893401F43F76008E0376902EB420250
:1008700093409F438B6893401F4337610A68102A57
:1008800001D0112A20D1124B02689A4217D19368E5
:100890001B0219D4936843F400039360096810297C
:1008A00012D10C490C4A0968B1FBF2F101EB81014C
:1008B000490000E0491E00910029FBD104E0816A53
:1008C00041F020018162012480F824502046F8BDC7
:1008D000002401403000002040420F000068C06C3E
:1008E000704700002DE9F0414FF0000704003D463D
:1008F0007ED0A06A002628B9E66284F824602046EB
:1009000000F07EF82046FFF769FCA16AC90600D412
:1009100020B1A06A40F01000A06269E0A16A21F451
:10092000885141F00201A1626268E169237B0A43B8
:1009300047EA43010A43A1684FF48077B94209D0DE
:10094000012907D05FF0000194F814C0BCF1010F39
:1009500002D00AE03946F7E7F3B1A36A43F0200377
:10096000A362E36A43F00103E3622368D3F804C09F
:100970002CF4694C4CEA010CC3F804C021688B6864
:10098000DFF870C003EA0C0313438B60A168B9421F
:100990000BD0012909D00CE0DFF85CC0A3690CEB97
:1009A00043330B4343F40061DFE7218A0D05A5F5CE
:1009B00080152168CB6A23F470032B43CB62216836
:1009C00089680E4B1940914208D1E662A16A21F074
:1009D000020141F00101A162BDE8F081A06A20F0AE
:1009E000020040F01000A062E06A40F00100E06206
:1009F0000120F1E7FDF7E1FF00E0FFFFFE0E1FFF22
:100A000010B586B000210091019102910391006818
:100A10001549884226D11548816941F400718161E8
:100A2000816901F400710491816941F004018161DF
:100A3000816901F004010491816941F0080181613B
:100A40008069032400F0080004908020CDE90004B0
:100A50006946074800F08CFA0094694605480194FD
:100A600000F086FA06B010BD0024014000100240DC
:100A700000080140000C01402DE9F84300270D4615
:100A80000446009700F06EFB804620688168C90527
:100A900008D5A06A40F02000A06284F824700120EC
:100AA000BDE8F8834168C90503D4C06A10F4700F2B
:100AB0002AD0022000F0F4FB3B490968B1FBF0F6B4
:100AC0002068036939490B424FEA61014FEAA112DC
:100AD0001FD1C3684FEA611C13EA0C0F19D10369D7
:100AE0000B4225D1C068104222D1142023E0681C9B
:100AF0000AD02DB100F036FBA0EB0800A84203D9C4
:100B000020680068800725D5206800688007EED53A
:100B10002DE003690B4202D1C168114206D002697F
:100B200023490A4206D1C068084203D1542002E09A
:100B3000292000E0FC204643009816E0681C11D0F4
:100B40002DB100F00FFBA0EB0800A8420AD90098D5
:100B5000B04207D2A06A40F00400A06284F824707A
:100B600003209DE70098401C0090B042E6D3216826
:100B70006FF012000860A06A40F40070A062206864
:100B80008068C0F3424007280CD1207B50B9A06A8E
:100B900020F48070A062A06AC00403D4A06A40F070
:100BA0000100A06200207BE730000020244992244D
:100BB0004992240070B5044690F8240001280DD015
:100BC000012084F824002046FFF734FB02004FF098
:100BD000000005D084F82400104670BD022070BDCE
:100BE000A16A40F20123994341F48071A1621F4D33
:100BF00023681F49AB4218D10E6816F4702F14D029
:100C0000A66A46F48016A6620E68760505D5A66A21
:100C100026F4005646F48056A662A66AF6040AD563
:100C2000E66A26F00606E66206E0A66A26F4801664
:100C3000A6625E68E9E7E06284F824006FF00200D3
:100C4000186020688368C3F34243072B05D1A8428C
:100C500008D1096811F4702F04D0816841F4801123
:100C60008160B9E7816841F4A001F9E700280140FB
:100C70000424014010B5044690F82400012807D050
:100C8000012084F824002046FFF7A8FA10B107E0FD
:100C9000022010BDA16A21F4885141F00101A16236
:100CA000002184F8241010BD10B590F82110002206
:100CB000022905D00421816380F82020012010BD85
:100CC00001680B6823F00E030B6001680B6823F0CA
:100CD00001030B6090F84030C46B012101FA03F36B
:100CE000636080F8211080F82020104610BD0000BD
:100CF00010B590F821100024022903D0042181634B
:100D000001243DE001680A6822F00E020A600168D1
:100D10000A6822F001020A601A4A0168914201D170
:100D2000012121E0174A1432914201D110211BE028
:100D3000144A2832914201D1891515E0114A3C32FA
:100D4000914201D189140FE00E4A5032914202D1F2
:100D50004FF4803108E00B4A6432914202D14FF4E3
:100D6000801101E04FF08071064A083A516001217C
:100D700080F82110002180F82010416B01B18847D4
:100D8000204610BD0800024070B5044600F0EAF9A4
:100D90000546601C02D004480078044400F0E2F9E3
:100DA000401BA042FAD370BD240000202DE9F0477B
:100DB000054626480F460126017E01290FD0012154
:100DC000814601762868DFF888804CF2503402288A
:100DD00008D0A2462046FFF707FCA8B131E0022068
:100DE000BDE8F0872046FFF7FFFB08BB0120FFF7B7
:100DF0009BFB2046FFF7F8FBD8F81010064621F0C1
:100E00000401C8F810101CE04FF0FF303860AC68E7
:100E100011E02046FFF79AFB5046FFF7E5FBD8F8B4
:100E20001010060021F00201C8F8101001D03C603B
:100E300007E004F58064D5E9020100EB8120A042BF
:100E4000E7D8002189F818103046C9E7A001002032
:100E5000002002400348016941F080010161002047
:100E600070470000002002402DE9F05F07461C4853
:100E700088460024017E15461E46012909D001211D
:100E8000814601764CF2503A5046FFF7ADFB18B15F
:100E900022E00220BDE8F09F012F02D0022F00D0F7
:100EA0000427D346DFF83CA0220128463146FFF74D
:100EB00039F981B208EB4400FFF75AFB5846FFF7B7
:100EC00093FBDAF8102022F00102CAF8102018B9BA
:100ED000641CE4B2BC42E7D3002289F81820D9E7A9
:100EE000A001002000200240064900200A691206E5
:100EF00007D5054A4A60054A4A600969090600D5CE
:100F0000012070470020024023016745AB89EFCDE7
:100F100010B5044600F026F90B490A68821AC82A5F
:100F200010D308600120B4F5805F07D0B4F5005FEE
:100F300006D0B4F5804F05D1044902E0044900E031
:100F40000449087010BD00001400002006000020B5
:100F50000400002005000020044910B50A68024280
:100F600002D00860FFF7D4FF10BD00001404014058
:100F70002DE9F84FDFF8B8910024A9F1040B2346BE
:100F80000F2709F1040AABF1040EC9E00125A540C1
:100F90002A40AA427DD1674ED1F804C0ACEB0608C6
:100FA000B44532D014DCBCF1030F3AD009DCBCF1FB
:100FB000000F2AD0BCF1010F1CD0BCF1020F31D1BF
:100FC0001DE0BCF1110F17D0BCF1120F2AD119E0AE
:100FD000B8F5881F19D006DCB8F5803F15D0B8F5F4
:100FE000801F1FD111E0B8F5001F0ED0B8F5041F07
:100FF00018D10AE0CB6815E0CB681B1D12E0CB6866
:1010000008330FE0CB680C330CE08B682BB1012B5D
:101010004FF0080303D0456104E0042302E00561BA
:1010200000E00023FF2A01D8064601E000F1040693
:101030004FEA840501D9A5F12005D6F8008007FA0A
:1010400005FC28EA0C0803FA05F548EA0508C6F885
:1010500000804D68ED0062D5374DAE6946F001065F
:10106000AE61AD6924F0030605F001050095334D2E
:1010700006EB050CDCF80850A607360F07FA06F851
:1010800025EA0805DFF8B880404503D14FF0000895
:1010900017E044E0DFF8AC80404502D14FF0010892
:1010A0000FE0DFF8A480404502D14FF0020808E0CD
:1010B000DFF89880404502D14FF0030801E04FF07F
:1010C000040808FA06F848EA0508CCF808804D68D4
:1010D000D9F80060ED024D4601D5164300E0964375
:1010E0002E604D68DAF80060AD02554601D5164312
:1010F00000E096432E604D68DBF80060AD035D466E
:1011000001D5164300E096432E604D68DEF800607E
:10111000ED03754601D5164300E096432E60641C2E
:101120000D682A46E5407FF431AFBDE8F88F000036
:1011300008040140000011100010024000000140AE
:1011400000080140000C0140001001400014014063
:101150008068084000D0012070470AB101617047E3
:101160000904FBE701488068704700002400002064
:101170000248816802781144816070472400002091
:10118000074810B5016841F010010160032000F02C
:1011900075F80F2000F006F800F024F8002010BDCC
:1011A0000020024070B50D4D04464FF47A71287846
:1011B000B1FBF0F00A490968B1FBF0F000F0AAFBBE
:1011C00048B9102C07D200222146501E00F036F8F4
:1011D00000206C6070BD012070BD00002400002064
:1011E000300000200C4808B5816941F0010181619F
:1011F000816901F001010091C16941F08051C16133
:10120000C06900F0805000900448416821F0E0611E
:1012100041F00071416008BD001002400000014033
:10122000002809DB00F01F020121914040098000E5
:1012300000F1E020C0F8001170470000F0B40E4B40
:101240001B680C46C3F30223C3F10705042D00D924
:101250000425191D072901D2002300E0DB1E012609
:1012600006FA05F1491E214099409E40761E16401F
:101270003143F0BC02F0C8B90CED00E0064900F0C3
:10128000070208684FF6FF03184040EA0220034AAD
:1012900010430860704700000CED00E00000FA0504
:1012A00010B501460020234C012922D0022939D053
:1012B00010291DD161682268D20119D51E48C1F3D9
:1012C0008342C903805C0AD561681B4AC1F340416F
:1012D000921E515C194AB2FBF1F1484301E01849F2
:1012E00048436168490203D440000321B0FBF1F098
:1012F00010BD226AC2F30121012903D1920701D551
:10130000C80310BD022905D1626A920702D549F6C9
:10131000404010BD0329FCD121688903F9D54FF263
:10132000244010BD00F030F96168C1F38131491CDF
:101330004900DBE700100240A43B000800127A00DD
:1013400000093D002DE9F84305460078354CC007FB
:1013500054D0E0690026C00008D4E06940F0805015
:10136000E061E069012600F0805000902E4801689D
:10137000C90512D40168804641F480710160FFF70D
:10138000F1FE074605E000BFFFF7ECFEC01B642836
:1013900023D8D8F80000C005F6D5206A10F44070B4
:1013A00021D0A98801F4407181421CD0206A1F49D4
:1013B000012220F440700A6000220A602062C00707
:1013C00011D0FFF7CFFE074641F2883808E000BF92
:1013D000FFF7C8FEC11B414502D90320BDE8F883D1
:1013E000206A8007F4D5206A696820F440700843B9
:1013F00020621EB1E06920F08050E061287880070B
:1014000005D56068A96820F44040084360602878EA
:10141000C00605D56068E96820F480000843606074
:101420000020DBE700100240007000404004424210
:101430002DE9F0470F46050061D0434E306800F0BB
:101440000700B84209D2306820F007003843306006
:10145000306800F00700B84251D128683B4C810742
:1014600012D5400703D5606840F4E06060602878DA
:10147000000703D5606840F4605060606068A96848
:1014800020F0F000084360602878C00728D0686822
:10149000012810D02168022810D0890700292EDAEF
:1014A000616821F0030101436160FFF75BFE804644
:1014B00041F288390DE021688903EFE78901EDE702
:1014C000FFF750FEA0EB0801494502D90320BDE813
:1014D000F0876068696800F00C00B0EB810FEFD115
:1014E000306800F00700B8420BD9306820F00700E0
:1014F00038433060306800F00700B84201D0012066
:10150000E5E72878400705D56068E96820F4E060E1
:10151000084360602878000706D56068296920F4D0
:10152000605040EAC100606000F03EF86168084A1F
:10153000C1F30311515CC8400649086006480068C1
:10154000FFF730FE0020C2E70020024000100240FA
:10155000B43B00083000002028000020014800684B
:1015600070470000300000200448054900684968C1
:10157000044AC1F30221515CC8407047300000208A
:1015800000100240C43B000804480549006849684F
:10159000044AC1F3C221515CC840704730000020AA
:1015A00000100240C43B00080E4A51680E4801F08A
:1015B0000C03042B11D0082B0FD10C48C1F383432B
:1015C000C903C05C0AD55168084AC1F34041921E64
:1015D000515C054A5043B0FBF1F070470449484361
:1015E000704700000010024000127A00923B000891
:1015F00000093D002DE9F84F040070D02078C04D5F
:10160000C00749D06868C0F38100012807D0686826
:10161000C0F38100022809D16868C00306D5286894
:10162000800339D560680028E7D035E06068B0F500
:10163000803F0BD010B1B0F5A02F11D0286820F456
:1016400080302860286820F4802002E0286840F478
:1016500080302860606890B1FFF784FD06460AE09C
:10166000286840F480202860F0E700BFFFF77AFD8B
:10167000801B642873D828688003F7D50CE0FFF737
:1016800071FD064605E000BFFFF76CFD801B642876
:10169000F0D828688003F7D420789A4E80074FF05E
:1016A00001094FF0000839D5686810F00C0F07D019
:1016B0006868C0F38100022809D16868C00306D4B5
:1016C0002868800714D52069012808D110E0206916
:1016D000B0B1C6F80090FFF745FD074605E00AE106
:1016E000FFF740FDC01B0228C4D828688007F7D543
:1016F0002868616920F0F80040EAC10028600DE028
:10170000C6F80080FFF72EFD074604E0FFF72AFD2C
:10171000C01B022823D828688007F7D42078000748
:101720002CD57948A169D9B1C0F80090FFF71AFD0E
:10173000074604E0FFF716FDC01B02280FD8686AB1
:101740008007F7D571484FF4FA510068B0FBF1F00B
:10175000009000BF0098411E0091FAD20EE080E098
:10176000C0F80080FFF7FEFC074604E0FFF7FAFC34
:10177000C01B022875D8686A8007F7D42078400714
:1017800060D5E8690027C00008D4E86940F08050BF
:10179000E861E869012700F0805000905C4801682A
:1017A000C90513D40168834641F480710160FFF7D5
:1017B000D9FC824606E000BFFFF7D4FCA0EB0A008C
:1017C00064284ED8DBF80000C005F5D5E068012894
:1017D0000AD008B1052813D0286A20F00100286239
:1017E000286A20F0040002E0286A40F00100286224
:1017F000E06841F2883B98B1FFF7B4FC82460BE009
:10180000286A40F004002862EEE700BFFFF7AAFC58
:10181000A0EB0A0159455AD8286A8007F6D50CE092
:10182000FFF7A0FC824605E0FFF79CFCA0EB0A0155
:1018300059454CD8286A8007F6D41FB1E86920F0D2
:101840008050E861E06988B36968C1F381010229C9
:1018500044D00228C6F8608004D0FFF783FC044619
:1018600038E034E0FFF77EFC074604E0FFF77AFC3F
:10187000C01B02282BD828688001F7D4206AB0F555
:10188000803F05D16868A16820F400300843686093
:10189000D4E908010843696821F4741108436860B9
:1018A000C6F86090FFF75EFC044606E025E000BF46
:1018B000FFF758FC001B022809D828688001F7D5DB
:1018C0001BE000BFFFF74EFC001B022802D90320DB
:1018D000BDE8F88F28688001F4D40EE00128F7D025
:1018E0006868226A00F48031914204D1616A00F490
:1018F0007010884201D00120EAE70020E8E70000EC
:1019000000100240000042428004424230000020A9
:101910000070004010B5401EB0F1807F01D301205F
:1019200010BD4FF0E02460610F21601701F06CFEE4
:101930000020A06107202061002010BD70B590F844
:101940003C20012A26D0012480F83C40022280F865
:101950003D2003685A689D6822F070060A68324389
:101960005A600D4B02689A4208D0B2F1804F05D000
:101970000A4B9A4202D00A4B9A4204D1496825F098
:1019800080031943916080F83D40002180F83C10AD
:10199000084670BD022070BD002C014000040040CC
:1019A0000008004010B5040003D094F83D0010B1C9
:1019B00007E0012010BD002084F83C00204600F024
:1019C0001FF8022084F83D00211D206801F00CFB67
:1019D000012084F8460084F83E0084F83F0084F833
:1019E000400084F8410084F8420084F8430084F801
:1019F000440084F8450084F83D00002010BD00003C
:101A000008B500680649884208D10648C16941F016
:101A10000201C161C06900F00200009008BD000031
:101A2000000400400010024070B5044690F83C00ED
:101A30000025012817D0012684F83C60022084F894
:101A40003D002068826822F0770222F47F428260A3
:101A50000868502838D00DDC20284FD005DC90B322
:101A6000102811D14AE0022070BD302846D040280D
:101A70000AD13BE060282FD070280DD0B0F5805FF0
:101A800003D0B0F5005F12D0012584F83D6000203E
:101A900084F83C00284670BDCB68D1E9012120685C
:101AA00001F0EBFA2068816841F0770109E0CB682A
:101AB000D1E90121206801F0E0FA2068816841F451
:101AC00080418160E1E719E0CA684968206801F057
:101AD00089FB5021206806E0CA684968206801F047
:101AE00092FB6021206801F0D2FACEE7CA6849680B
:101AF000206801F077FB40212068F4E72268014666
:101B00001046F0E700B585B00021009101910291E7
:101B1000039100680B49884211D10B48816941F05B
:101B2000040181618069694600F00400049040204E
:101B300000900220019003900448FFF719FA05B0C5
:101B400000BD0000000400400010024000080140F9
:101B500070B5044690F83C0000260D4601280FD0D1
:101B6000012084F83C006AB1042A1DD0082A2FD035
:101B70000C2A3FD00126002084F83C00304670BD7E
:101B8000022070BD206801F08BFA2068816941F065
:101B9000080181612068816921F004018161206868
:101BA00081692A69114311E0206801F0A1FA2068D7
:101BB000816941F4006181612068816921F480615B
:101BC0008161206881692A6941EA02218161D2E745
:101BD000206801F0B9FA2068C16941F00801C161CB
:101BE0002068C16921F00401C1612068C1692A69C6
:101BF000114311E0206801F0D3FA2068C16941F473
:101C00000061C1612068C16921F48061C1612068FF
:101C1000C1692A6941EA0221C161ACE710B504003B
:101C200003D094F83D0010B107E0012010BD002062
:101C300084F83C00204600F01EF8022084F83D00A5
:101C4000211D206801F0D0F9012084F8460084F8B5
:101C50003E0084F83F0084F8400084F8410084F896
:101C6000420084F8430084F8440084F8450084F876
:101C70003D00002010BD704710B50446022249B156
:101C800004290ED0082913D094F84100012816D059
:101C9000012010BD94F83E000128F9D184F83E20BF
:101CA0000FE094F83F000128F2D184F83F2008E0CB
:101CB00094F840000128EBD184F8402001E084F83A
:101CC00041200122206801F0CBF90F4920688842A9
:101CD00003D1426C42F4004242642068884208D03A
:101CE000B0F1804F05D00949884202D008498842A6
:101CF00004D1816801F00701062903D0016841F091
:101D000001010160002010BD002C014000040040D2
:101D10000008004070477047F8B50168044608683D
:101D2000CA684B6910F00F0F4FF0000559D003F04F
:101D3000010602F49077374365D0C10705D0D1057D
:101D400003D5616C41F001016164410705D5D907F4
:101D500003D0616C41F002016164810705D5D907A8
:101D600003D0616C41F004016164010707D502F002
:101D70002001314303D0616C41F008016164616C62
:101D800000293AD0800604D5900602D5204601F0FD
:101D90007BFA20684069616CC0F38010090700D4A9
:101DA00060B3204601F049FA20684069400621D519
:101DB0002068143050E8001F21F0400140E8001274
:101DC000002AF5D1E06BA8B16D494163E06BFEF7E5
:101DD0008FFF002811D0E06B416B01B0BDE8F040EF
:101DE000084783060FD593060DD52046BDE8F84079
:101DF00001F04ABA2046FFF78EFFF8BD2046FFF7F4
:101E00008AFF6564F8BD266B2023012E7CD1C606AF
:101E10007AD5D60678D508684868009048694FF0AA
:101E20000206400640D5E16B086840680004000CDB
:101E3000E8D0A28D8242E5D9E085886920282DD09E
:101E400020680C3050E8001F21F4807140E8001237
:101E5000002AF5D12068143050E8001F21F001015C
:101E600040E80012002AF5D12068143050E8001F25
:101E700021F0400140E80012002AF5D184F84230F8
:101E8000256320680C3050E8001F21F0100140E865
:101E90000012002AF5D1E06BFEF706FF6663A08D05
:101EA000E18D401A81B22AE0A08DE18D401A81B205
:101EB000E08D0028A6D00029A4D022680C3252E878
:101EC000000F20F4907042E80007002FF5D1206841
:101ED000143050E8002F22F0010240E80027002FC4
:101EE000F5D184F84230256320680C3050E8002F8B
:101EF00022F0100240E80023002BF5D16663204653
:101F0000FFF708FFF8BDFFE705062BD5150629D515
:101F100094F841002128F5D1A068B0F5805F01D187
:101F20002069B0B1206A411C2162216800784860B4
:101F3000E08C401E0004000CE084E3D12068C168FE
:101F400021F08001C1602068C16841F04001C1609A
:101F5000D8E7206A0088C0F308004860206A801C27
:101F60002062E5E74006CDD55006CBD5CA682046AD
:101F700022F04002CA6084F8413000F07DFAC1E7E7
:101F80002B32000870B5040004D094F841000025FD
:101F900010B106E0012070BD84F84050204600F0EA
:101FA00023F8242084F841002068C16821F40051FE
:101FB000C160204601F0CAF92068016921F490410E
:101FC00001612068416921F02A0141612068C168EE
:101FD00041F40051C1606564202084F8410084F818
:101FE00042006563002070BD70B586B00024009487
:101FF0000194029403942B4E03682B490220032280
:102000002A4DB34221D18B6943F480438B618B69A4
:1020100003F4804304938B6943F004038B61896963
:10202000039201F0040104910102CDE90010694618
:102030002846FEF79DFF2815CDE90004694628468D
:102040000294FEF795FF06B070BD194EB342FAD167
:10205000CB6943F40033CB61CB6903F400330493C1
:102060008B6943F004038B618969039201F00401D9
:1020700004910421CDE9001069462846FEF778FF57
:102080000820CDE90004694628460294FEF770FF57
:10209000002202212620FFF7D1F82620FFF7C0F802
:1020A000D1E7000000380140001002400008014064
:1020B0000044004090F84230202B01D002207047AD
:1020C00021B11AB10023036301F09CB901207047CC
:1020D0002DE9F04100685449884277D1FFF742F872
:1020E000524C534A0025606021780A2908D00D29F6
:1020F00006D0607863286AD21154401C607087E073
:1021000060784CA115544A48FEF72EF870B94AA1E0
:102110004748FEF729F848B948A14548FEF724F892
:1021200020B948A14248FEF71FF810B1404947A026
:1021300067E053A13E48FEF717F8534F4FF48076FF
:1021400020B952A13A48FEF70FF868B10122314692
:102150003846FFF702F83648642307224DA1AC3019
:1021600000F03AF94EA016E05AA13148FDF7FCFF05
:1021700020B95AA12E48FDF7F7FF78B10022314669
:102180003846FEF7EAFF2A486423082255A1AC30FE
:1021900000F022F956A001F027FA34E062A12448A9
:1021A000FDF7E2FF20B962A12148FDF7DDFF78B11C
:1021B0001F486423072260A1AC3000F00DF961A034
:1021C00001F012FA6E49012008701CE02AE027E0B5
:1021D0006078C0B11648642309226AA1AC3000F0CF
:1021E000FBF813496423627801F1AC0000F0F4F8C5
:1021F0000F486423022221A1AC3000F0EDF80C4915
:1022000063A001F0F1F9657064210948FDF7A1FFB1
:10221000BDE8F041064801220449AC30FFF74ABF4F
:1022200065A0B8E7BDE8F081004400401800002038
:10223000AC000020626C6500424C4500636F6E6E1E
:1022400065637400436F6E6E656374004445425568
:10225000473A20426C7565746F6F746820636F6EC7
:102260006E656374696F6E206D6573736167652059
:1022700072656365697665643A2025730D0A00000E
:102280004C4159204F4E0000000801406C617920FC
:102290006F6E00004C4159204F4E0D0A00000000A7
:1022A00044454255473A2052656365697665642026
:1022B000276C6179206F6E2720636F6D6D616E648E
:1022C0002C2072656C6179207475726E6564206F64
:1022D0006E0D0A004C4159204F4646006C61792032
:1022E0006F6666004C4159204F46460D0A000000BB
:1022F00044454255473A20526563656976656420D6
:10230000276C6179206F66662720636F6D6D616E43
:10231000642C2072656C6179207475726E6564201E
:102320006F66660D0A000000554C4E204F4E0000AF
:10233000756C6E206F6E0000554C4E204F4E0D0A8E
:102340000000000044454255473A205265636569E4
:102350007665642027756C6E206F6E2720636F6D25
:102360006D616E642C2073657474696E672073747C
:10237000657070657220666C61670D0A0000000070
:102380000700002052656365697665643A200000A5
:1023900044454255473A2052656365697665642035
:1023A000756E6B6E6F776E20636F6D6D616E643AE4
:1023B0002025730D0A00000044454255473A20424B
:1023C00075666665722066756C6C2C207265736527
:1023D0007474696E670D0A002DE9F843044690F89D
:1023E0004100984616460D46202802D00220BDE83E
:1023F000F88385B17EB100206064212084F841001B
:10240000FEF7B0FEA6848146E684A0682027B0F5DA
:10241000805F02D003E00120E9E7206910B12E4679
:1024200000250EE000260CE08021204601F005F892
:10243000A8B9C6B116F8010B21684860E08C401EAF
:10244000E084E08C4B464FF00002CDF8008000287D
:10245000EAD14FF04001204600F0EFFF40B184F890
:1024600041700320C3E735F8020BC0F30800E3E72F
:1024700084F841700020BAE77047FEE770B501228A
:102480000E4D940321462846FEF767FE01225603AF
:1024900031462846FEF761FE00F048F8002221464A
:1024A0002846FEF75AFE00F041F800223146284641
:1024B000FEF753FEBDE8704000F038B80010014050
:1024C00070B50B4D4FF48044002221462846FEF79C
:1024D00044FE012251032846FEF73FFE00F026F895
:1024E00021462846BDE870400122FEF736BE0000B6
:1024F0000010014070B50C4C012291032046FEF7FC
:102500002CFE00F013F80122550329462046FEF761
:1025100024FE00F00BF8002229462046FEF71DFE9F
:10252000BDE8704000F002B8001001406420401E79
:1025300080B2FCD2704700003EB5002111480091E6
:1025400001910F4A029102608160017301750124BB
:102550004FF460220461C2614160FEF7C3F908B123
:10256000FDF7E0FF0720CDE9000402906946054829
:10257000FEF736F9002801D0FDF7D4FF3EBD00007C
:1025800000240140340000202DE9F04385B00020F4
:1025900000900190029003903948816941F0100148
:1025A0008161816901F010010491816941F020018C
:1025B0008161816901F020010491816941F0040188
:1025C0008161816901F004010491816941F0080190
:1025D000816180692B4F00F008004FF4C0440490E3
:1025E000012221463846FEF7B8FDDFF89C80012223
:1025F0004FF498714046FEF7B0FDDFF890904FF42D
:102600007876012231464846FEF7A7FD0094012462
:102610000325694638460194CDE90245FEF7A8FC3A
:102620003020CDE9000469464046CDE90245FEF779
:102630009FFC4FF4E04000901548CDE90104694645
:102640004846FEF795FC2002CDE900040220CDE9C2
:10265000020569464046FEF78BFCCDE900646946F9
:102660004846CDE90245FEF783FC002211462820AA
:10267000FEF7E4FD2820FEF7D3FD05B0BDE8F083AA
:10268000001002400010014000080140000C014011
:102690000000211010B58EB000240794089409940E
:1026A0000A940B941C2168460C94FDF752FD1F48B8
:1026B0001D4901604721C0E9011440F2E731C0E93A
:1026C000031480218161FFF76DF908B1FDF72AFF3E
:1026D0004FF48050079007A91448FFF7A5F908B1F7
:1026E000FDF720FF1148FFF799FA08B1FDF71AFF2F
:1026F0000B940BA90D480C94FFF720F908B1FDF7D6
:1027000011FF6020CDE900040294002269460748C9
:102710000494FFF71DFA08B1FDF704FF0348FFF723
:10272000F1F90EB010BD000000040040640000206C
:102730000C4810B50A4901604FF4E13141600021B5
:1027400081600C22C160C0E904128161C161FFF7A0
:1027500019FC002803D0BDE81040FDF7E3BE10BD12
:1027600000380140100100200E4810B50C490160EE
:102770004FF4E1314160002181600C22C160C0E969
:1027800004128161C161FFF7FDFB08B1FDF7CAFECC
:10279000BDE81040012204490248FFF78BBC00004D
:1027A000004400405801002018000020FEE7FEE72A
:1027B00030B40021084B0A465FF0000003EB8004B0
:1027C000401CC0B262548028F8D3491CC9B2042905
:1027D000F2D330BC00F08EB8C001002030B5CC0878
:1027E00001F0070301259D40EBB2064D05EB800586
:1027F000C808285C0AB1184302E063EA0000C0433D
:10280000285530BDC001002010B50021AE2000F0D9
:102810006CF90021084600F068F90021102000F052
:1028200064F90021402000F060F90021812000F0CF
:102830005CF900217F2000F058F90021A12000F070
:1028400054F90021C82000F050F90021A62000F022
:102850004CF90021A82000F048F900211F2000F0C9
:1028600044F90021D32000F040F90021084600F08F
:102870003CF90021D52000F038F90021802000F03B
:1028800034F90021D92000F030F90021222000F095
:102890002CF90021DA2000F028F90021022000F0B4
:1028A00024F90021DB2000F020F90021202000F095
:1028B0001CF90021202000F018F90021022000F06E
:1028C00014F900218D2000F010F90021142000F0EF
:1028D0000CF9FFF76DFF0021BDE81040AF2000F0BC
:1028E00004B90246012000E05043491EC9B2FBD2A0
:1028F0007047000070B5184E002400BF04F1B0000E
:10290000C0B2002100F0F1F80021084600F0EDF817
:102910000021102000F0E9F8FFF7B0FD782000F06A
:102920009FF9FFF7E7FD402000F09AF9FFF7E2FD7D
:102930005FF0000506EB8500005D00F091F9FFF700
:10294000D9FD6D1CEDB2802DF4D3FFF7B9FD641CE9
:10295000E4B2042CD2D370BDC00100202DE9FC4F9D
:102960001C460E4682468B460190082B0DD0600710
:1029700000D0012000EBD40061084843C0B281467A
:10298000203AD0B2009000204BE00620F7E7082C58
:1029900013D00C2C18D0102C1BD0182C44D100981C
:1029A000234900EBC00000BF01EB8001002711F8B4
:1029B0000850E80712D00B9A13E000981D4900EB6D
:1029C000400001EB4001F1E700981B4900EB40009B
:1029D000EAE71A49009801EB0011E7E70B9828B3E2
:1029E000002231465046FFF7F9FE761C7F1C6D0829
:1029F000FFB2F6B2082FDCD30AF1010000F0FF0AA3
:102A0000082C0AD00199AAEB0100B0EB540F04D1B5
:102A10000BF108008A4600F0FF0B08F101005E464A
:102A2000C0B280464845B2D3BDE8FC8F0122D8E74A
:102A300058480008CC3B0008F43D000868420008F4
:102A40002DE9F84F0025DDE90A691F4692468B46BD
:102A50008046082E00D1022500241CE0381B401EB1
:102A6000C1B20A20FFF73DFFBAFBF0F00A21B0FB2C
:102A7000F1F201FB1200CDF8009080B13030C2B20B
:102A800005EB560101FB0480C0B233465946FFF7FF
:102A900065FF641CE4B2BC42E0D3BDE8F88F05EBEF
:102AA000560101FB0480C0B233463022EEE72DE927
:102AB000F8411E46154688460446079F0BE03346FC
:102AC000414620460097FFF749FF082E0AD004EB45
:102AD0005600C4B26D1C2A78A2F120005E28EED9FF
:102AE000BDE8F881A41DE4B2F4E770B50C460546D4
:102AF000FFF7C4FC782000F0B3F8FFF7FBFC0CB143
:102B0000402000E0002000F0ABF8FFF7F3FC28467F
:102B100000F0A6F8FFF7EEFCBDE87040FFF7D0BC70
:102B2000704700002DE9F0474B4C2079002580B11B
:102B30002571E078401CE070E078052807D9E57041
:102B4000A570FDF7CBFDBDE8F04700F0B3B800F08D
:102B5000B3FC607940F6B8374FF4FA664FF49679D3
:102B60004FF06408B0B36571E078052830D2DFE833
:102B700000F0030C151D27006078401C6070607821
:102B8000282825D90A20607022E02078401C207077
:102B9000207864281CD93C20207019E0208A6430F9
:102BA0002082208AB84213D9268211E0A08964309D
:102BB000A081A089B0420BD94FF47A70A08107E0C0
:102BC000E0890A30E081E089484501D9A4F80E8007
:102BD00000F0D2FCA07900283CD0A571E07805284F
:102BE00034D2DFE800F0030C15202B006078401E83
:102BF000607060780A2829D22820607026E020784A
:102C0000401E207020783C2820D284F800801DE0EF
:102C1000208A40F63401884203D3208A6438208217
:102C200014E0278212E0A08940F24C41884203D38D
:102C3000A0896438A08109E0A68107E0E0896E28B8
:102C400002D3E0890A3800E04846E081BDE8F04759
:102C500000F092BCBDE8F087000000207047000043
:102C60002DE9F041124F002405464FF480487E14B0
:102C7000280601D5012200E0002241463846FEF731
:102C80006CFAFFF753FC012231463846FEF765FA2D
:102C9000FFF74CFC002231463846FEF75EFA680624
:102CA000641C050EE4B2082CE2D3BDE8F0810000FC
:102CB0000010014038B5FFF77BFD012400210823F7
:102CC00012A208460094FFF7F2FE082310A200218A
:102CD00041200094FFF7EBFE08230EA219460020C6
:102CE0000094FFF7E4FE08230CA2102100200094BA
:102CF000FFF7DDFE08230BA2182100200094FFF748
:102D0000D6FEBDE83840FFF7F5BD0000483A0000A8
:102D1000543A00004D51353A000000004E6F69737F
:102D2000653A00004C696768743A00007CB5FFF7AB
:102D30003FFD0124082345A200211E200094FFF737
:102D4000B6FE082343A2194600200094FFF7AFFE09
:102D50000826424DCDE900646A78022331462320DB
:102D6000FFF76EFE08233EA2194641200094FFF7AC
:102D70009EFECDE900642A78032308215F20FFF737
:102D80005FFE082338A2102100200094FFF78FFE79
:102D9000CDE900642A8A042310211E20FFF750FE8B
:102DA000082333A2102141200094FFF780FECDE9D3
:102DB0000064AA89042310214E20FFF741FE082356
:102DC0002CA2182100200094FFF771FECDE90064C9
:102DD000EA89032318212A20FFF732FE082327A2BD
:102DE000182150200094FFF762FEE878062811D2DF
:102DF000DFE800F00309141A202608233C221946B4
:102E00003120009404E008233C22194673200094EA
:102E1000FFF7A4FDBDE87C40FFF76CBD08233C2212
:102E2000102138200094F3E708233C221021682069
:102E30000094EDE708233C2218213E200094E7E7A8
:102E400008233C2218216A200094E1E7534554549A
:102E5000494E470054656D703A00000000000020A4
:102E600048756D3A000000004D51353A00000000F1
:102E70004E3A00004C696768743A000045786974FE
:102E8000000000002DE9F05F4FF0AA0927A000F034
:102E9000ABFBDFF8B8802E4F00264FF4807A4FF45A
:102EA000007B0024402118F80450384605F0010248
:102EB000FEF753F9C5F3400280213846FEF74DF97D
:102EC000C5F3800251463846FEF747F9C5F3C00204
:102ED00059463846FEF741F9FEF744F94FEA000536
:102EE000FEF740F9401B0F28FAD3641CE4B2042C0F
:102EF000D8D3761CF6B24E45D3D3002240213846B3
:102F0000FEF72BF9002280213846FEF726F9002231
:102F100051463846FEF721F9002259463846FEF759
:102F20001CF9BDE8F05F0BA000F05EBB44454255C4
:102F3000473A2053746570706572206D6F746F72BC
:102F40002073746172740D0A000000008C3B00084D
:102F5000000C014044454255473A20537465707057
:102F60006572206D6F746F722073746F700D0A003C
:102F7000FEF7FEB830B593B028216846FDF7E9F8B2
:102F800014210AA8FDF7E5F80024012108040F9494
:102F9000109412940491CDE90010CDE90804119425
:102FA0000294022507956846FEF724FB08B172B625
:102FB000FEE70F20CDE90A054FF48060CDE90C4013
:102FC00000210AA80E94FEF733FA08B172B6FEE7A4
:102FD0000FA80F951194FEF7B5F9002801D072B62D
:102FE000FEE713B030BD7047F0B50268194B1A4CBC
:102FF0001A4D4FF08047984205D0B84203D0A04206
:1030000001D0A84203D122F070064A6832439842A8
:1030100005D0B84203D0A04201D0A84203D122F487
:103020004074CA6822434C6922F080022243026045
:103030008A68C2620A688262984201D109690163A2
:10304000012141610169C90703D0016921F0010132
:103050000161F0BD002C0140000400400008004068
:1030600010B501F01F030121046A99408C430462EA
:10307000016A9A401143016210BD10B5846842EAAA
:10308000032224F47F440A432243826010BD8268F5
:1030900022F070020A4342F007018160704700008D
:1030A00030B5036A026A22F0010202624268846952
:1030B00024F073050C682C4323F002058B682B4326
:1030C0000A4DA8420BD123F00805CB6822F44072C8
:1030D0002B434D6923F0040315438A692A43426058
:1030E000846149684163036230BD0000002C0140E7
:1030F00030B5026A036A23F01003036243688469EF
:103100000D6824F4E64444EA05248D6822F0200288
:1031100042EA05120B4DA8420ED1CD6822F0800282
:1031200042EA05124D6923F4406343EA85038D6941
:1031300022F0400243EA8503436084614968816369
:10314000026230BD002C014030B5036A026A22F4ED
:10315000807202624268C46923F4007324F073052C
:103160000C682C438D6843EA05230C4DA8420ED110
:10317000CD6823F4006343EA05234D6922F44052ED
:1031800042EA05128D6923F4806342EA0512426027
:10319000C4614968C163036230BD0000002C014076
:1031A00030B5046A026A22F4805202624268C3693E
:1031B0000D6823F4E64343EA05238D6824F40054A4
:1031C00044EA0534064DA84204D14D6922F48042F8
:1031D00042EA85124260C36149680164046230BDFD
:1031E000002C014010B5036A046A24F00104046253
:1031F000846924F0F00444EA021423F00A020A432A
:103200008461026210BD10B5036A046A24F01004E0
:103210000462846923F0A00324F4704444EA023277
:1032200043EA01118261016210BD10B5406A0021BC
:10323000C185C184FEF76FFD10BD01680C3151E8F6
:10324000002F22F4907241E80023002BF5D1016891
:10325000143151E8002F22F0010241E80023002B35
:10326000F5D1016B012909D101680C3151E8002F1A
:1032700022F0100241E80023002BF5D1202180F834
:10328000421000210163704708B590F842102229CE
:1032900001D0022008BD82684FF480539A4201D1C8
:1032A000016921B1816A9A421BD04AB10AE00268E1
:1032B000816A5268C2F308020A80816A891C08E0A8
:1032C000026972B10268526802F07F020A70816A74
:1032D000491C8162C18D491E0904090CC18503D0B6
:1032E0001BE002685268F1E70168CA6822F0200218
:1032F000CA600168CA6822F48072CA6001684A69BB
:1033000022F001024A61202180F84210002141632D
:10331000026B012A03D0FEF7DBFE002008BD01632B
:1033200001680C3151E8002F22F0100241E800231F
:10333000002BF5D101680A68D20602D50A684968EF
:103340000091818DFEF7E6FCE7E7000070B50446CA
:1033500000680169E26821F440511143016121696B
:10336000A0680843616908432168CA6841F20C6398
:103370009A430243CA6020684169A26921F44071FE
:10338000114341611E492068884202D1FEF7FCF8D2
:1033900001E0FEF7E9F800EBC00101EB0012606804
:1033A00064218000B2FBF0F3B3FBF1F36FF0180679
:1033B0007343B2FBF0F5B2FBF0F605EB8305322365
:1033C00003EB0515B5FBF1F5B6FBF1F605F0F005DD
:1033D00005EB0615B2FBF0F6B2FBF0F0B0FBF1F036
:1033E0006FF01802504306EB800003EB0010B0FBB7
:1033F000F1F0216800F00F002844886070BD0000E3
:103400000038014081628285C28500214164222109
:1034100080F84210016921B10168CA6842F48072E3
:10342000CA6001684A6942F001024A610068C168E5
:1034300041F02001C160002070472DE9F843984613
:1034400017460D460446089E24E0701C22D0FDF766
:1034500089FEA0EB0800B0421AD8CEB12068C1683E
:10346000490717D5802D15D0402D13D00168C943C9
:1034700009070FD401680025406800902046FFF737
:10348000DCFE0820606484F840500120BDE8F88329
:103490000320FBE72068006835EA000004D0002024
:1034A000B842D2D00020F1E70120F9E70148FEF749
:1034B00033BC00005801002038B501240823202225
:1034C000194631200094FFF749FA082320221946B3
:1034D00073200094FFF742FA08232022102138209D
:1034E0000094FFF73BFA0823202210216820009463
:1034F000FFF734FA0823202218213E200094FFF71A
:103500002DFA0823202218216A200094FFF726FABA
:103510001848C078062811D2DFE800F00309141A11
:10352000202608233C2219463120009404E0082379
:103530003C22194673200094FFF710FABDE838408A
:10354000FFF7D8B908233C22102138200094F3E774
:1035500008233C22102168200094EDE708233C2238
:1035600018213E200094E7E708233C2218216A2016
:103570000094E1E7000000201CB51948C378012140
:103580000822052B13D2DFE803F0030A161D2400DE
:10359000CDE90021427802230821232005E0CDE96E
:1035A00000210278032308215F20FFF749FABDE8D4
:1035B0001C40FFF79FB9CDE90021028A04231021A6
:1035C0001E20F2E7CDE900218289042310214E203C
:1035D000EBE7CDE90021C289032318212A20E4E783
:1035E00000000020FEE700000FB4054B10B503A952
:1035F000044A029800F028F810BC5DF814FB0000A3
:1036000001380008200000200907090E002804DB0B
:1036100000F1E02080F80014704700F00F0000F186
:10362000E02080F8141D704702E008C8121F08C18E
:10363000002AFAD170477047002001E001C1121F33
:10364000002AFBD1704700002DE9FF4F8BB09A464E
:103650000F460546002606E025280BD052460D9958
:1036600090476D1C761C28780028F5D10FB03046A5
:10367000BDE8F08F0024A0460122604900E0044329
:1036800015F8013F203B02FA03F00842F7D12878F1
:103690002E2817D115F8010F44F004042A280ED063
:1036A0006FF02F022878A0F1300109290AD808EB21
:1036B000880102EB410100EB01086D1CF2E757F8AD
:1036C000048B6D1C287869283ED006DC0028CDD0FC
:1036D00063280BD0642804D136E0732810D07528F5
:1036E0004BD052460D999047761C85E017F8040B95
:1036F0008DF8000000208DF80100E946012003E06C
:1037000057F8049B4FF0FF3061074FF0000401D4DD
:103710000AE0641C44450DDA8442FADB19F804100F
:103720000029F6D106E0641C8442FCDB19F8041081
:103730000029F8D1264404E019F8010B52460D99EE
:103740009047641EF8D257E001CF4FF00A0B0028D3
:1037500002DA40422D2102E0210504D52B218DF80B
:103760002410012103E0E10705D02021F7E70DF146
:10377000200908910CE00021F9E701CF4FF00A0B76
:10378000F9E75946FCF702FD01F1300209F8012D75
:103790000028F6D1ADEB090000F1200B600701D441
:1037A0004FF00108D84502DDA8EB0B0000E0002037
:1037B0008046002406E009A85246005D0D99904716
:1037C000641C761C08988442F5DB04E030205246E5
:1037D0000D999047761CB8F10001A8F10108F5DCBD
:1037E00005E019F8010B52460D999047761CBBF184
:1037F0000001ABF1010BF4DC6D1C34E7092801007A
:1038000013B54FF6FF73012269460248FEF7E4FD47
:1038100000981CBD1001002088B0FDF7B1FCFFF737
:10382000A9FBFEF7B1FEFEF783FFFEF785FEFEF76C
:103830009BFFFEF72FFF9EA0FFF7D6FEFEF7E4FFEB
:10384000FEF7B6FF0125002108239BA2084600953C
:10385000FFF72DF9082399A2002141200095FFF7D9
:1038600026F9082396A2194600200095FFF71FF9B4
:10387000082395A2102100200095FFF718F90823CE
:1038800093A2182100200095FFF711F9FFF732F8F5
:10389000914F4FF4807A002251463846FDF75DFC87
:1038A000012220213846FDF758FC0122102138461C
:1038B000FDF753FC00218948FEF7DEF964230D2251
:1038C00087A18B48FEF788FDFCF7B8FEDFF824924D
:1038D000894C4FF008080026A07810B1FFF722F9B4
:1038E000DBE0207928B12671A570E670FFF71EFA9B
:1038F000F2E799F8000060B1FDF734FC7F490968F0
:10390000401AB0F57A7F04D97DA0FFF76DFE89F8E3
:10391000006002A8FCF770FD002863D1CDE90085A6
:103920009DF80820022300210A20FFF789F80823C8
:103930002E22002119200095FFF710F8CDE900850F
:103940009DF80920012300211E20FFF779F80823A4
:103950002522002126200095FFF700F8CDE90085FB
:103960009DF80A20022300214B20FFF769F8082365
:103970002E2200215A200095FEF7F0FFCDE90085A8
:103980009DF80B20012300215F20FFF759F8082341
:103990004322002167200095FEF7E0FF9DF8080014
:1039A0002178884209D9642313225FA15048FEF789
:1039B00013FDFFF767FA257202E0207A00B1267244
:1039C0009DF80A006178884207D9642316225BA11A
:1039D0004748FEF701FD012200E00022514638462B
:1039E000FDF7BBFB06AA05A904A8FCF761FCCDE91D
:1039F00000850423BDF8102008211E20FFF720F8C1
:103A0000CDE900850423BDF8142010212820FFF7FC
:103A100017F8CDE900850423BDF8182018212820C7
:103A2000FFF70EF8FEF766FFBDF81400A189884283
:103A300007D964230C2247A12D48FEF7CDFC6572FF
:103A400002E0607A00B16672BDF81000218A8842F7
:103A500007D96423122243A12548FEF7BDFCA572B5
:103A600002E0A07A00B1A672BDF8180040F2E7317A
:103A7000414340F6FF72B1FBF2F1184AA1F2E7317F
:103A80004942126889B25163E189884205D26423B0
:103A9000122239A11648FEF79FFCE07910B1FFF71A
:103AA000F1F9E6714FF4FA60FDF76EF914E70000E2
:103AB000676F0D0A00000000483A0000543A000009
:103AC0004D51353A000000004E6F6973653A0000B1
:103AD0004C696768743A00000008014064000020E7
:103AE0005553415254322052656164790D0A0000E9
:103AF0005801002019000020000000201C000020B8
:103B000044454255473A2052582074696D656F7597
:103B1000742C20726573657474696E6720627566B3
:103B20006665720D0A00000048756D6964697479F4
:103B300020546F6F20486967680D0A0054656D70E6
:103B40006572617475726520546F6F20486967688B
:103B50000D0A00004E6F69736520486967680D0A99
:103B600000000000416972205175616C6974792010
:103B7000506F6F720D0A00004C6967687420546FB3
:103B80006F205374726F6E670D0A00000102040803
:103B9000010202030405060708090A0B0C0D0E0FAB
:103BA0001010010202030405060708090A0B0C0D98
:103BB0000E0F1010000000000000000001020304BE
:103BC00006070809000000000102030400000000CD
:103BD00000000000002F0000000007000700001494
:103BE0007F147F1400242A7F2A12006264081323A2
:103BF00000364955225000000503000000001C2239
:103C00004100000041221C000014083E0814000876
:103C1000083E0808000000A0600000080808080826
:103C2000000060600000002010080402003E5149BE
:103C3000453E0000427F400000426151494600215C
:103C400041454B31001814127F1000274545453976
:103C5000003C4A49493000017109050300364949D1
:103C6000493600064949291E00003636000000008A
:103C700056360000000814224100001414141414D5
:103C8000000041221408000201510906003249597E
:103C9000513E007C1211127C007F49494936003E9A
:103CA00041414122007F4141221C007F4949494155
:103CB000007F09090901003E4149497A007F08084F
:103CC000087F0000417F4100002040413F01007F0C
:103CD00008142241007F40404040007F020C027FD8
:103CE000007F0408107F003E4141413E007F0909EA
:103CF0000906003E4151215E007F09192946004610
:103D0000494949310001017F0101003F4040403FE6
:103D1000001F2040201F003F4038403F0063140830
:103D2000146300070870080700615149454300000B
:103D30007F41410000552A552A55000041417F002E
:103D40000004020102040040404040400000010223
:103D50000400002054545478007F4844443800380C
:103D60004444442000384444487F00385454541894
:103D700000087E0901020018A4A4A47C007F0804A6
:103D800004780000447D4000004080847D00007F76
:103D9000102844000000417F4000007C0418047893
:103DA000007C0804047800384444443800FC24248F
:103DB00024180018242418FC007C08040408004877
:103DC0005454542000043F444020003C4040207C98
:103DD000001C2040201C003C4030403C0044281087
:103DE0002844001CA0A0A07C004464544C4414143B
:103DF0001414141400000000000000000000000073
:103E00000000FC000000000002000000000C020C9A
:103E1000020000000000000090D0BCD0BC90000365
:103E2000000300001824FE448C0003020702010076
:103E30001824D8B04C80000300010201C038E438D7
:103E4000E00001020201020208060000000000007A
:103E500000000000000000F804020000000102045D
:103E6000000204F800000004020100009060F86005
:103E700090000000010000002020FC202000000035
:103E80000100000000000000000008060000000023
:103E90002020202020000000000000000000000082
:103EA00000000002000000000080601C020004030B
:103EB00000000000F8040404F800010202020100FE
:103EC0000008FC00000000020302000018844424E3
:103ED000180003020202020008042424D800010290
:103EE0000202010040B088FC8000000000030200D4
:103EF0003C242424C400010202020100F824242CE2
:103F0000C0000102020201000C04E41C04000000D5
:103F100003000000D8242424D8000102020201007A
:103F200038444444F800000302020100000010007D
:103F3000000000000200000000002000000000005F
:103F4000060000000020508804020000000001026A
:103F50009090909090000000000000000002048803
:103F600050200002010000001804C42418000000C2
:103F700002000000F804E494F800010202020200CA
:103F800000E09CF0800002030000030204FC2424F3
:103F9000D800020302020100F80404040C0001022C
:103FA0000202010004FC0404F80002030202010002
:103FB00004FC24740C0002030202030004FC2474B9
:103FC0000C00020302000000F0080444CC40000191
:103FD0000202010004FC2020FC0402030000030292
:103FE0000404FC040400020203020200000404FCB6
:103FF000040406040403000004FC24D00C0402039F
:104000000200030204FC0400000002030202020397
:10401000FC3CC03CFC0003000300030004FC30C473
:10402000FC04020302000300F8040404F800010287
:104030000202010004FC2424180002030200000014
:10404000F8848404F80001020207050004FC2464DB
:104050009800020302000302182424448C00030287
:10406000020201000C04FC040C0000020302000028
:1040700004FC0000FC04000102020100047C80E05A
:104080001C040000030000001CE03CE01C000003D6
:1040900000030000049C609C040002030003020073
:1040A000041CE01C04000002030200000C84641CD9
:1040B00004000203020203000000FE0202000000EE
:1040C00007040400000E30C00000000000010200E0
:1040D000000202FE000000040407000000040204C5
:1040E00000000000000000000000000000000808C0
:1040F000080808080000020000000000000000009E
:104100000040A0A0C00000010202030204FC202025
:10411000C00000030202010000C020206000000176
:104120000202020000C02024FC000001020203027F
:1041300000C0A0A0C0000001020202000020F8247C
:1041400024040002030202000040A0A06020000737
:104150000A0A0A0404FC2020C00002030200030231
:104160000020E4000000000203020000000020E440
:10417000000008080807000004FC80E0202002037B
:10418000020003020404FC00000002020302020019
:10419000E020E020C00003000300030020E0202016
:1041A000C00002030200030200C02020C000000182
:1041B0000202010020E02020C000080F0A020100D6
:1041C00000C02020E0000001020A0F0820E040208B
:1041D00020000203020000000060A0A020000002F6
:1041E000020203000020F82000000000010202008B
:1041F00020E00020E00000010202030220E0208015
:1042000060200000030100006080E0806000000387
:104210000003000020608060200002030003020011
:1042200020E0208060200808070100000020A06036
:104230002000000203020200000020DE0200000055
:1042400000070400000000FF00000000000F000055
:104250000002DE200000000407000000020102044A
:104260000402000000000000000000000000000048
:104270000000000000000000000000F80000000046
:10428000000000333000000000100C06100C060087
:10429000000000000000000040C07840C0784000EE
:1042A000043F04043F040400007088FC0830000050
:1042B000001820FF211E0000F008F000E0180000A8
:1042C00000211C031E211E0000F008887000000061
:1042D0001E2123241927211010160E0000000000B3
:1042E0000000000000000000000000E018040200D0
:1042F000000000071820400000020418E000000041
:104300000040201807000000404080F0804040003E
:104310000202010F01020200000000F00000000094
:104320000101011F01010100000000000000000068
:1043300080B07000000000000000000000000000DD
:104340000001010101010101000000000000000066
:104350000030300000000000000000008060180401
:10436000006018060100000000E010080810E000DE
:10437000000F102020100F00001010F800000000A7
:104380000020203F202000000070080808887000EE
:10439000003028242221300000300888884830006E
:1043A0000018202020110E000000C02010F800008E
:1043B00000070424243F240000F808888808080027
:1043C0000019212020110E0000E01088881800003C
:1043D000000F112020110E0000380808C83808000E
:1043E0000000003F0000000000708808088870008E
:1043F000001C222121221C0000E010080810E0000F
:104400000000312222110F00000000C0C000000097
:1044100000000030300000000000008000000000BC
:1044200000008060000000000000804020100800B4
:10443000000102040810200040404040404040007D
:104440000404040404040400000810204080000058
:104450000020100804020100007048080808F0005D
:104460000000003036010000C030C828E810E0002D
:104470000718272423140B000000C038E0000000B8
:10448000203C23020227382008F888888870000022
:10449000203F202020110E00C030080808083800F6
:1044A000071820202010080008F808080810E0006D
:1044B000203F202020100F0008F88888E80810000E
:1044C000203F20202320180008F88888E8081000E2
:1044D000203F200003000000C0300808083800001A
:1044E00007182020221E020008F808000008F8081B
:1044F000203F210101213F20000808F808080000A2
:104500000020203F2020000000000808F8080800D4
:10451000C08080807F00000008F888C0281808004C
:10452000203F20012638200008F808000000000085
:10453000203F20202020300008F8F800F8F808007C
:10454000203F003F003F200008F830C00008F80876
:10455000203F200007183F00E01008080810E00086
:104560000F10202020100F0008F808080808F0009D
:10457000203F210101010000E01008080810E000C0
:104580000F18242438504F0008F888888888700055
:10459000203F2000030C30200070880808083800F5
:1045A0000038202121221C00180808F808081800EB
:1045B0000000203F2000000008F808000008F8086C
:1045C000001F202020201F000878880000C838081D
:1045D000000007380E010000F80800F80008F80095
:1045E000033C0700073C030008186880806818082F
:1045F00020302C03032C30200838C800C8380800AD
:104600000000203F2000000010080808C8380800FB
:104610002038262120201800000000FE020202009F
:104620000000007F40404000000C30C0000000004F
:10463000000000010638C00000020202FE00000077
:10464000004040407F00000000000402020204001D
:10465000000000000000000000000000000000005A
:104660008080808080808080000202040000000042
:10467000000000000000000000008080808000003A
:104680000019242222223F2008F800808000000028
:10469000003F112020110E000000008080800000EB
:1046A000000E112020201100000000808088F800FA
:1046B000000E112020103F2000008080808000002C
:1046C000001F222222221300008080F08888881890
:1046D0000020203F2020000000008080808080009B
:1046E000006B94949493600008F800808080000030
:1046F000203F210000203F2000809898000000000B
:104700000020203F2020000000000080989800003A
:1047100000C08080807F000008F80000808080005A
:10472000203F24022D302000000808F8000000007F
:104730000020203F2020000080808080808080003A
:10474000203F20003F20003F8080008080800000CC
:10475000203F210000203F2000008080808000005A
:10476000001F202020201F0080800080800000008B
:1047700080FFA12020110E000000008080808000BA
:10478000000E112020A0FF808080800080808000AB
:1047900020203F21200001000000808080808000D8
:1047A0000033242424241900008080E0808000004D
:1047B0000000001F2020000080800000008080009A
:1047C000001F202020103F208080800000808080FB
:1047D00000010E300806010080800080008080808B
:1047E0000F300C030C300F000080800080808000B0
:1047F0000020312E0E3120008080800000808080DB
:1048000080818E701806010000808080808080008A
:104810000021302C2221300000000000807C0202A8
:1048200000000000003F404000000000FF000000CA
:1048300000000000FF0000000002027C8000000079
:104840000040403F00000000000601010202040495
:104850000000000000000000000000000000000058
:104860000000000000000000000000000000000048
:104870000000000000000000000000000000000038
:1048800000F0F0F0000000000000000000017F01D7
:104890000000000000000000001C1C1C00000000C4
:1048A00000008060301C8C60301C0C000000000098
:1048B00000000000000000000000000000000000F8
:1048C00000000000000000E00000000000E0000028
:1048D0000086E69F86868686E69F860000011F0189
:1048E000010101011F010100000080C06020F820CB
:1048F000E0C00000000003070C18FF70E181000019
:104900000000070F10107F100F070000806020606C
:1049100080000000E02000000F3020309F70DC3766
:104920001030C0000000100E030007181018070018
:104930000000C02020E0C0000000000080E01F3820
:10494000E88703C43C040000070F1810100B070D84
:104950001010080000808C4C38000000000000009F
:104960000000000000000000000000000000000047
:10497000000000000000000000000000000080E0D7
:10498000300804000000000000FEFF0100000000ED
:10499000000000000000030F182040000004083051
:1049A000E0800000000000000000000001FFFE00A9
:1049B00000000000004020180F030000000000006D
:1049C000000000000000C000000000000042666619
:1049D0003C18FF183C66664200000000000003001F
:1049E0000000000000000000000080000000000047
:1049F000001010101010FF10101010100000000018
:104A000000000300000000000000000000000000A3
:104A10000000000000000000000000000000000096
:104A200000808C4C380000000000000000000000F6
:104A30000000000000000000001010101010101006
:104A40001010100000000000000000000000000036
:104A50000000000000000000000000000000000056
:104A6000000000000000000000001C1C1C000000F2
:104A7000000000000000000000000000E0380C0012
:104A80000000000080701C03000000000060380E71
:104A90000100000000000000000080C060202060D5
:104AA000C080000000FEFF010000000001FFFE00CA
:104AB0000001070E181010180E070100000080807A
:104AC00080C0E000000000000000000000FFFF00C8
:104AD0000000000000001010101F1F101010000038
:104AE0000080402020202060C080000000030300E0
:104AF000804020381F070000001C1A1918181818C9
:104B0000181F00000080C020202060C0800000002E
:104B1000000303001010182FE780000000070F109B
:104B2000101010180F070000000000000000C0E087
:104B3000F000000000C0B088868180FFFF80800008
:104B4000000000000010101F1F1010000000E060A7
:104B5000606060606060000000003F100808081896
:104B6000F0E0000000070B101010101C0F030000F5
:104B7000000080C040202020E0C0000000FCFF2199
:104B80001008080818F0E0000001070C18101010B9
:104B9000080F03000000C0E06060606060E060003B
:104BA000000003000000E018070000000000000003
:104BB000001F1F00000000000080C0602020202097
:104BC00060C080000087EF2C1818303068CF830059
:104BD00000070F0810101010180F07000000C0C0C9
:104BE00020202020C0800000001F3F604040402067
:104BF00010FFFE0000000C1C101010080F03000036
:104C000000000000000000000000000000000000A4
:104C1000000E0E0E0000000000000000001C1C1C16
:104C20000000000000000000000000000000000084
:104C300000000000000C0C0000000000000000005C
:104C40000058380000000000000000000000008054
:104C500040201000000010284482010000000000E5
:104C60000000000000000102040810000000000025
:104C70000000000000000000008484848484848498
:104C80008484840000000000000000000000000098
:104C90000000102040800000000000000000000024
:104CA00000000182442810000000100804020100E6
:104CB0000000000000C020201010101030E0C000E4
:104CC0000003030000F010080C07030000000000C0
:104CD0001C1C1C0000000000000000C040602020E0
:104CE0002040C00000FCFF01F00E03C1FE03807FE6
:104CF0000001070E08111110110904020000000044
:104D000080E0E000000000000000807C4340477F1E
:104D1000F880000010181F1000000000131F1C1066
:104D200020E0E02020202060C080000000FFFF1075
:104D3000101010182FE78000101F1F1010101010F7
:104D4000180F0700000080C0402020202060E000F5
:104D500000FCFF0100000000000001000001070E40
:104D6000181010100804030020E0E020202020404C
:104D7000C080000000FFFF000000000001FFFE00F7
:104D8000101F1F10101018080E07010020E0E0206F
:104D9000202020202060800000FFFF101010107CD9
:104DA00000000000101F1F10101010101018060037
:104DB00020E0E020202020206060800000FFFF1025
:104DC0001010107C00000100101F1F1000000000D8
:104DD00000000000000080C06020202040E00000B3
:104DE00000FCFF0100004040C0C140400001070E30
:104DF000181010100F0F000020E0E020000000004D
:104E000020E0E02000FFFF101010101010FFFF0046
:104E1000101F1F1000000000101F1F100000202096
:104E200020E0E020202000000000000000FFFF0044
:104E30000000000000001010101F1F1010100000D4
:104E400000000000202020E0E020202000000000E2
:104E5000000000FFFF0000000060E0808080C07F55
:104E60003F00000020E0E020000020A060202000A3
:104E700000FFFF30187CE3C000000000101F1F106F
:104E8000000001131F1C181020E0E02000000000AB
:104E90000000000000FFFF00000000000000000014
:104EA000101F1F10101010101018060020E0E0E076
:104EB00000000000E0E0E02000FF013FFEC0E01E37
:104EC00001FFFF00101F1000031F0300101F1F1021
:104ED00020E0E0C0000000000020E02000FF000310
:104EE000071C78E08000FF00101F10000000000089
:104EF000030F1F00000080C060202060C080000001
:104F000000FEFF010000000000FFFE000001070E90
:104F1000181010180C07010020E0E02020202020AD
:104F200060C0800000FFFF2020202020301F0F00E5
:104F3000101F1F100000000000000000000080C0D3
:104F400060202060C080000000FEFF010000000023
:104F500000FFFE000001070E1111133C7C672100C9
:104F600020E0E0202020202060C0800000FFFF1013
:104F70001030F0D0080F0700101F1F1000000003B2
:104F80000F1C10100080C060202020204040E00056
:104F900000070F0C1818303060E08100001F0C086B
:104FA00010101010180F07008060202020E0E02073
:104FB000202060800100000000FFFF0000000001D1
:104FC00000000000101F1F100000000020E0E02083
:104FD000000000000020E02000FFFF0000000000B3
:104FE0000000FF0000070F18101010101008070035
:104FF0002060E0E02000000020E060200000077F4B
:10500000F88000807C03000000000000071F1C07E0
:105010000000000020E0E02000E0E0200020E02090
:105020000007FFF8E01FFFFCE01F00000000031F67
:105030000300011F03000000002060E0A00000202A
:10504000E0602000000000038F7CF8C60100000033
:105050000010181E130001171F1810002060E0E058
:105060002000000020E06020000001073EF8E0186A
:105070000700000000000010101F1F1010000000AB
:1050800000806020202020A0E0E020000000000040
:10509000C0F03E0F0300000000101C1F171010107E
:1050A000101806000000000000FC040404040400C2
:1050B0000000000000FF00000000000000000000F1
:1050C000007F404040404000000010E00000000031
:1050D0000000000000000000031C608000000000D1
:1050E00000000000000000030C70800000000404B9
:1050F000040404FC0000000000000000000000FFA9
:1051000000000000000040404040407F00000000E0
:1051100000000010080C040C081000000000000043
:10512000000000000000000000000000000000007F
:10513000000000000000000000000000000000006F
:10514000000000000000000000000000808080805F
:105150008080808080808080000000040408080037
:10516000000000000000000000000000000000003F
:10517000000000000000000000000000000000002F
:105180000000000000000000000098D844642424BF
:10519000FCF80000000F1F18101010081F1F101837
:1051A0000020E0F000000000000000000000FFFF11
:1051B000180804040CF8F00000001F0F181010105D
:1051C000180F0300000000000000000000000000B5
:1051D00000E0F8180404043C3800000000030F0C41
:1051E0001010101008060000000000000000002051
:1051F000E0F0000000E0F81C04040408FFFF0000D9
:1052000000030F18101010081F0F08000000000006
:1052100000000000000000000000E0F848444444A2
:105220004C7870000000030F0C18101010080400D8
:105230000000000080C0602020E0C00000040404E2
:10524000FFFF040404040000000010101F1F1010D2
:10525000100000000000000000000000000000003E
:10526000000070F88C04048CF874040C007076CF85
:105270008D8D8D89C87870000020E0F0000000005E
:10528000000000000000FFFF08040404FCF8000018
:1052900000101F1F100000101F1F10000000000052
:1052A00000606000000000000000040404FCFC003A
:1052B0000000000000001010101F1F101010000050
:1052C000000000000000006060000000000000001E
:1052D000040404FCFC0000000000C0C08080C07F0B
:1052E0003F0000000020E0F000000000000000008F
:1052F0000000FFFF80C0F41C0404000000101F1F0A
:105300001100031F1C1010000000202020E0F000FE
:10531000000000000000000000FFFF00000000008F
:1053200000001010101F1F101010000000000000DF
:10533000000000000000000004FCFC0804FCFC0865
:1053400004FCFC00101F1F10001F1F10001F1F1067
:105350000000000000000000000000000004FCFC51
:1053600008080404FCF8000000101F1F10000010C3
:105370001F1F1000000000000000000000000000DF
:1053800000E0F0180C04040C18F0E00000030F0C0F
:10539000101010100C0F03000000000000000000AF
:1053A000000000000004FCFC080404040CF8F000F9
:1053B0000080FFFF889010101C0F03000000000009
:1053C000000000000000000000E0F81C04040408D5
:1053D000F8FC000000030F1810109088FFFF8000F9
:1053E000000000000000000000000000040404FCB5
:1053F000FC100804040C0C001010101F1F101010DB
:10540000000000000000000000000000000000009C
:1054100000003078CCC48484840C1C0000001E186A
:1054200010101011190F06000000000000C000004D
:105430000000000000040404FFFF04040400000056
:10544000000000000F1F1010100C000000000000F2
:1054500000000000000000000004FCFE000000044A
:10546000FCFE000000000F1F181010081F0F08009E
:1054700000000000000000000000000000040C3CE0
:10548000FCC40000C43C0C0400000000010F1E0E10
:10549000010000000000000000000000000000000B
:1054A000043CFCC400E47CFC84807C040000071FF6
:1054B000070000071F0700000000000000000000B8
:1054C000000000000004041C7CE4C0341C04040040
:1054D0000010101C1601131F1C1810000000000003
:1054E000000000000000000000040C3CFCC400C4EC
:1054F0003C0404000000C080C1370E010000000021
:1055000000000000000000000000000000001C047B
:1055100004C4F47C1C0400000000101C1F171110B0
:1055200010180E0000000000000000F80C0400003D
:1055300000000000001028EF000000000000000044
:105540000000003F60400000000000000000FF007D
:1055500000000000000000000000FF00000000004C
:10556000000000000000FF00000000000000040C2C
:10557000F80000000000000000000000EF2810000C
:1055800000000000000040603F000000000000003C
:105590000018060202040810202030080000000055
:1055A00000000000000000000000000000000000FB
:1055B00000000000D4550008000000203400000066
:1055C0002836000808560008340000208C07000028
:1055D000383600085A1400000000000000000000E7
:1055E000D0072C01D00700000000000000000000E0
:1055F000000000000000000001000000100000009A
:085600000000000000127A0016
:04000005080000ED02
:00000001FF
