:020000040800F2
:100000009006002001010008AF160008C114000886
:10001000AD160008DB0200086B1C000800000000A1
:10002000000000000000000000000000231A00088B
:10003000A904000800000000211A0008791A00082D
:100040001B0100081B0100081B0100081B01000820
:100050001B0100081B0100081B0100081B01000810
:100060001B0100081B0100081B0100081B01000800
:100070001B0100081B0100081B0100081B010008F0
:100080001B0100081B0100081B0100081B010008E0
:100090001B0100081B0100081B0100081B010008D0
:1000A0001B0100081B0100081B0100081B010008C0
:1000B0001B0100081B0100081B0100081B010008B0
:1000C0001B0100081B0100081B0100081B010008A0
:1000D0001B0100081B0100081B0100081B01000890
:1000E0001B0100081B0100081B010008DFF80CD0F1
:1000F00000F040F800480047391E00089006002034
:100100000648804706480047FEE7FEE7FEE7FEE7B1
:10011000FEE7FEE7FEE7FEE7FEE7FEE7EF1A000870
:10012000ED000008D2B201E000F8012B491EFBD21D
:1001300070470022F6E710B513460A4604461946F2
:10014000FFF7F0FF204610BD30B50B4601460020FA
:100150002022012409E021FA02F59D4205D303FA89
:1001600002F5491B04FA02F52844151EA2F101020A
:10017000F1DC30BD064C074D06E0E06840F00103BD
:1001800094E8070098471034AC42F6D3FFF7B2FF6B
:10019000D0390008F039000870B50446006881685D
:1001A000C943C90717D1816821F00101816000F0BE
:1001B000EFFC05460AE000BF00F0EAFC401B022805
:1001C00004D920688068C043C00706D020688068D2
:1001D000C043C007F0D0002070BDA06A40F01000FE
:1001E000A062E06A40F00100E062012070BD000002
:1001F000F8B500260446009600688168C943C9071F
:100200002DD0816841F001018160164816490068CF
:10021000B0FBF1F000E0401E00900028FBD100F0A0
:10022000B7FC054616E000BF00F0B2FC401B0228F8
:1002300010D920688068C043C0070BD0A06A40F086
:100240001000A062E06A40F00100E06284F82460DF
:100250000120F8BD20688068C043C007E4D10020B9
:10026000F8BD00000C00002040420F0070B514469D
:100270000D46064600F02BF8308000F02BF8288061
:1002800000F022F8208070BD3EB569460090012044
:100290000190072002900B4800F00AF908B100F025
:1002A00004F9084800F0EEFA6421064800F04CFA20
:1002B000044800F07BF984B2024800F043FB20467A
:1002C0003EBD0000140000200920FFF7DDBF07201D
:1002D000FFF7DABF0820FFF7D7BFFEE710B50446E7
:1002E00000F044FE0349B0FBF1F16143491EFDD229
:1002F00010BD000000093D0010B52820FFF7EEFFFB
:100300002021044800F03AFC08B1002010BD012073
:1003100010BD0000000C01401FB52022084B012138
:1003200020B100200092CDE9010104E00320CDE9D5
:100330000021CDE902106946184600F02FFB1FBDD1
:10034000000C014010B50C4C2021204600F016FC9A
:100350000028F9D02820FFF7C1FF2021204600F017
:100360000DFC002806D02021204600F007FC0028C4
:10037000F9D1012010BD0000000C014070B500242F
:1003800025466006040EFFF7DDFF08B144F00104C6
:100390006D1CEDB2082DF4D3204670BD70B588B049
:1003A0000446002001900290142103A8FFF7C1FE2B
:1003B00000F066F8FFF7A0FF002841D0214D202172
:1003C000284600F0DBFB0028F9D02021284600F069
:1003D000D5FB0028F9D100250DF10406FFF7CEFF6B
:1003E00070556D1CEDB2052DF8D39DF804109DF8E5
:1003F00005209DF806309DF807008D181E1835441D
:100400009DF80860B54215D100900FA001F02EFCB8
:100410009DF8040020709DF8050060709DF80600AE
:10042000A0709DF80700E0709DF808002071002082
:1004300008B070BD0EA000BF01F018FC0120F7E766
:100440000DA0F9E7000C0140B5B1C7B0CAAAB6C803
:10045000A3BA25642E256425255248B5B1C7B0CE70
:10046000C2B6C8A3BA25642E2564A1E3432D2D008E
:100470003132330D0A0000003435360D0A00000019
:1004800010B50020FFF748FF00222021054800F0AA
:100490007AFB142000F070FABDE810400120FFF74D
:1004A0003BBF0000000C0140704772B6FEE7000041
:1004B000F8B50024009490F824202546012A12D093
:1004C000012280F824204A681F23072A0DD20668DB
:1004D000776B521E02EB820293409F430B6893405E
:1004E0001F43776319E00220F8BD06680D2A0AD27F
:1004F000376BD21F02EB820293409F430B689340FD
:100500001F43376309E0F76A0D3A02EB820293401A
:100510009F430B6893401F43F7620A6807230668EE
:100520000A2A0AD3F7680A3A02EB420293409F4331
:100530008B6893401F43F76008E0376902EB420283
:1005400093409F438B6893401F4337610A68102A8A
:1005500001D0112A20D1124B02689A4217D1936818
:100560001B0219D4936843F40003936009681029AF
:1005700012D10C490C4A0968B1FBF2F101EB81017F
:10058000490000E0491E00910029FBD104E0816A86
:1005900041F020018162012480F824502046F8BDFA
:1005A000002401400C00002040420F000068C06C95
:1005B000704700002DE9F0414FF0000704003D4670
:1005C0007ED0A06A002628B9E66284F8246020461E
:1005D00000F07EF82046FFF7DFFDA16AC90600D4CF
:1005E00020B1A06A40F01000A06269E0A16A21F485
:1005F000885141F00201A1626268E169237B0A43EC
:1006000047EA43010A43A1684FF48077B94209D011
:10061000012907D05FF0000194F814C0BCF1010F6C
:1006200002D00AE03946F7E7F3B1A36A43F02003AA
:10063000A362E36A43F00103E3622368D3F804C0D2
:100640002CF4694C4CEA010CC3F804C021688B6897
:10065000DFF870C003EA0C0313438B60A168B94252
:100660000BD0012909D00CE0DFF85CC0A3690CEBCA
:1006700043330B4343F40061DFE7218A0D05A5F501
:1006800080152168CB6A23F470032B43CB62216869
:1006900089680E4B1940914208D1E662A16A21F0A7
:1006A000020141F00101A162BDE8F081A06A20F0E1
:1006B000020040F01000A062E06A40F00100E06239
:1006C0000120F1E7FDF7E1FF00E0FFFFFE0E1FFF55
:1006D00010B586B00021009101910291039100684C
:1006E0001549884226D11548816941F4007181611C
:1006F000816901F400710491816941F00401816113
:10070000816901F004010491816941F0080181616E
:100710008069032400F0080004908020CDE90004E3
:100720006946074800F03AF9009469460548019483
:1007300000F034F906B010BD002401400010024062
:1007400000080140000C01402DE9F84300270D4648
:100750000446009700F01CFA804620688168C905AD
:1007600008D5A06A40F02000A06284F8247001201F
:10077000BDE8F8834168C90503D4C06A10F4700F5E
:100780002AD0022000F094FA3B490968B1FBF0F648
:100790002068036939490B424FEA61014FEAA1120F
:1007A0001FD1C3684FEA611C13EA0C0F19D103690A
:1007B0000B4225D1C068104222D1142023E0681CCE
:1007C0000AD02DB100F0E4F9A0EB0800A84203D94B
:1007D00020680068800725D5206800688007EED56E
:1007E0002DE003690B4202D1C168114206D00269B3
:1007F00023490A4206D1C068084203D1542002E0CE
:10080000292000E0FC204643009816E0681C11D027
:100810002DB100F0BDF9A0EB0800A8420AD900985C
:10082000B04207D2A06A40F00400A06284F82470AD
:1008300003209DE70098401C0090B042E6D3216859
:100840006FF012000860A06A40F40070A062206897
:100850008068C0F3424007280CD1207B50B9A06AC1
:1008600020F48070A062A06AC00403D4A06A40F0A3
:100870000100A06200207BE70C00002024499224A4
:100880004992240070B5044690F8240001280DD048
:10089000012084F824002046FFF7AAFC02004FF054
:1008A000000005D084F82400104670BD022070BD01
:1008B000A16A40F20123994341F48071A1621F4D66
:1008C00023681F49AB4218D10E6816F4702F14D05C
:1008D000A66A46F48016A6620E68760505D5A66A55
:1008E00026F4005646F48056A662A66AF6040AD597
:1008F000E66A26F00606E66206E0A66A26F4801698
:10090000A6625E68E9E7E06284F824006FF0020006
:10091000186020688368C3F34243072B05D1A842BF
:1009200008D1096811F4702F04D0816841F4801156
:100930008160B9E7816841F4A001F9E7002801402E
:100940000424014010B5044690F82400012807D083
:10095000012084F824002046FFF71EFC10B107E0B8
:10096000022010BDA16A21F4885141F00101A16269
:10097000002184F8241010BD70B5044600F008F979
:100980000546601C02D004480078044400F000F9D9
:10099000401BA042FAD370BD000000202DE9F84FA3
:1009A000DFF8B8910024A9F1040B23460F2709F1C1
:1009B000040AABF1040EC9E00125A5402A40AA4271
:1009C0007DD1674ED1F804C0ACEB0608B44532D0F7
:1009D00014DCBCF1030F3AD009DCBCF1000F2AD0C3
:1009E000BCF1010F1CD0BCF1020F31D11DE0BCF1F4
:1009F000110F17D0BCF1120F2AD119E0B8F5881FDA
:100A000019D006DCB8F5803F15D0B8F5801F1FD18E
:100A100011E0B8F5001F0ED0B8F5041F18D10AE098
:100A2000CB6815E0CB681B1D12E0CB6808330FE0E4
:100A3000CB680C330CE08B682BB1012B4FF0080313
:100A400003D0456104E0042302E0056100E00023D7
:100A5000FF2A01D8064601E000F104064FEA8405AA
:100A600001D9A5F12005D6F8008007FA05FC28EA8F
:100A70000C0803FA05F548EA0508C6F800804D6839
:100A8000ED0062D5374DAE6946F00106AE61AD6945
:100A900024F0030605F001050095334D06EB050C27
:100AA000DCF80850A607360F07FA06F825EA08050D
:100AB000DFF8B880404503D14FF0000817E044E06C
:100AC000DFF8AC80404502D14FF001080FE0DFF8BD
:100AD000A480404502D14FF0020808E0DFF898807A
:100AE000404502D14FF0030801E04FF0040808FA36
:100AF00006F848EA0508CCF808804D68D9F8006087
:100B0000ED024D4601D5164300E096432E604D6838
:100B1000DAF80060AD02554601D5164300E0964371
:100B20002E604D68DBF80060AD035D4601D51643CD
:100B300000E096432E604D68DEF80060ED037546D8
:100B400001D5164300E096432E60641C0D682A46CA
:100B5000E5407FF431AFBDE8F88F000008040140A4
:100B60000000111000100240000001400008014088
:100B7000000C014000100140001401408068084052
:100B800000D0012070470AB1016170470904FBE7FA
:100B9000014880687047000000000020024881681A
:100BA000027811448160704700000020074810B5AA
:100BB000016841F010010160032000F067F80F2088
:100BC00000F006F800F024F8002010BD00200240DC
:100BD00070B50D4D04464FF47A712878B1FBF0F0F2
:100BE0000A490968B1FBF0F000F09CFB48B9102CF1
:100BF00007D200222146501E00F028F800206C6029
:100C000070BD012070BD0000000000200C0000201D
:100C10000C4808B5816941F001018161816901F0E9
:100C200001010091C16941F08051C161C06900F0CA
:100C3000805000900448416821F0E06141F000716B
:100C4000416008BD0010024000000140F0B40E4BAE
:100C50001B680C46C3F30223C3F10705042D00D91A
:100C60000425191D072901D2002300E0DB1E0126FF
:100C700006FA05F1491E214099409E40761E164015
:100C80003143F0BC01F002B80CED00E0064900F081
:100C9000070208684FF6FF03184040EA0220034AA3
:100CA00010430860704700000CED00E00000FA05FA
:100CB00010B501460020234C012922D0022939D049
:100CC00010291DD161682268D20119D51E48C1F3CF
:100CD0008342C903805C0AD561681B4AC1F3404165
:100CE000921E515C194AB2FBF1F1484301E01849E8
:100CF00048436168490203D440000321B0FBF1F08E
:100D000010BD226AC2F30121012903D1920701D546
:100D1000C80310BD022905D1626A920702D549F6BF
:100D2000404010BD0329FCD121688903F9D54FF259
:100D3000244010BD00F030F96168C1F38131491CD5
:100D40004900DBE700100240C01F000800127A00D3
:100D500000093D002DE9F84305460078354CC007F1
:100D600054D0E0690026C00008D4E06940F080500B
:100D7000E061E069012600F0805000902E48016893
:100D8000C90512D40168804641F480710160FFF703
:100D9000FFFE074605E000BFFFF7FAFEC01B642810
:100DA00023D8D8F80000C005F6D5206A10F44070AA
:100DB00021D0A98801F4407181421CD0206A1F49CA
:100DC000012220F440700A6000220A602062C007FD
:100DD00011D0FFF7DDFE074641F2883808E000BF7A
:100DE000FFF7D6FEC11B414502D90320BDE8F883B9
:100DF000206A8007F4D5206A696820F440700843AF
:100E000020621EB1E06920F08050E0612878800700
:100E100005D56068A96820F44040084360602878E0
:100E2000C00605D56068E96820F48000084360606A
:100E30000020DBE700100240007000404004424206
:100E40002DE9F0470F46050061D0434E306800F0B1
:100E50000700B84209D2306820F0070038433060FC
:100E6000306800F00700B84251D128683B4C810738
:100E700012D5400703D5606840F4E06060602878D0
:100E8000000703D5606840F4605060606068A9683E
:100E900020F0F000084360602878C00728D0686818
:100EA000012810D02168022810D0890700292EDAE5
:100EB000616821F0030101436160FFF769FE80462C
:100EC00041F288390DE021688903EFE78901EDE7F8
:100ED000FFF75EFEA0EB0801494502D90320BDE8FB
:100EE000F0876068696800F00C00B0EB810FEFD10B
:100EF000306800F00700B8420BD9306820F00700D6
:100F000038433060306800F00700B84201D001205B
:100F1000E5E72878400705D56068E96820F4E060D7
:100F2000084360602878000706D56068296920F4C6
:100F3000605040EAC100606000F03EF86168084A15
:100F4000C1F30311515CC8400649086006480068B7
:100F5000FFF73EFE0020C2E70020024000100240E2
:100F6000D01F00080C000020040000200148006889
:100F7000704700000C0000200448054900684968DB
:100F8000044AC1F30221515CC84070470C000020A4
:100F900000100240E01F0008044805490068496845
:100FA000044AC1F3C221515CC84070470C000020C4
:100FB00000100240E01F00080E4A51680E4801F080
:100FC0000C03042B11D0082B0FD10C48C1F3834321
:100FD000C903C05C0AD55168084AC1F34041921E5A
:100FE000515C054A5043B0FBF1F070470449484357
:100FF000704700000010024000127A00AE1F000887
:1010000000093D002DE9F84F040070D02078C04D54
:10101000C00749D06868C0F38100012807D068681C
:10102000C0F38100022809D16868C00306D528688A
:10103000800339D560680028E7D035E06068B0F5F6
:10104000803F0BD010B1B0F5A02F11D0286820F44C
:1010500080302860286820F4802002E0286840F46E
:1010600080302860606890B1FFF792FD06460AE084
:10107000286840F480202860F0E700BFFFF788FD73
:10108000801B642873D828688003F7D50CE0FFF72D
:101090007FFD064605E000BFFFF77AFD801B642850
:1010A000F0D828688003F7D420789A4E80074FF054
:1010B00001094FF0000839D5686810F00C0F07D00F
:1010C0006868C0F38100022809D16868C00306D4AB
:1010D0002868800714D52069012808D110E020690C
:1010E000B0B1C6F80090FFF753FD074605E00AE1EE
:1010F000FFF74EFDC01B0228C4D828688007F7D52B
:101100002868616920F0F80040EAC10028600DE01D
:10111000C6F80080FFF73CFD074604E0FFF738FD06
:10112000C01B022823D828688007F7D4207800073E
:101130002CD57948A169D9B1C0F80090FFF728FDF6
:10114000074604E0FFF724FDC01B02280FD8686A99
:101150008007F7D571484FF4FA510068B0FBF1F001
:10116000009000BF0098411E0091FAD20EE080E08E
:10117000C0F80080FFF70CFD074604E0FFF708FD0C
:10118000C01B022875D8686A8007F7D4207840070A
:1011900060D5E8690027C00008D4E86940F08050B5
:1011A000E861E869012700F0805000905C48016820
:1011B000C90513D40168834641F480710160FFF7CB
:1011C000E7FC824606E000BFFFF7E2FCA0EB0A0066
:1011D00064284ED8DBF80000C005F5D5E06801288A
:1011E0000AD008B1052813D0286A20F0010028622F
:1011F000286A20F0040002E0286A40F0010028621A
:10120000E06841F2883B98B1FFF7C2FC82460BE0F0
:10121000286A40F004002862EEE700BFFFF7B8FC40
:10122000A0EB0A0159455AD8286A8007F6D50CE088
:10123000FFF7AEFC824605E0FFF7AAFCA0EB0A012F
:1012400059454CD8286A8007F6D41FB1E86920F0C8
:101250008050E861E06988B36968C1F381010229BF
:1012600044D00228C6F8608004D0FFF791FC044601
:1012700038E034E0FFF78CFC074604E0FFF788FC19
:10128000C01B02282BD828688001F7D4206AB0F54B
:10129000803F05D16868A16820F400300843686089
:1012A000D4E908010843696821F4741108436860AF
:1012B000C6F86090FFF76CFC044606E025E000BF2E
:1012C000FFF766FC001B022809D828688001F7D5C3
:1012D0001BE000BFFFF75CFC001B022802D90320C3
:1012E000BDE8F88F28688001F4D40EE00128F7D01B
:1012F0006868226A00F48031914204D1616A00F486
:101300007010884201D00120EAE70020E8E70000E1
:101310000010024000004242800442420C000020C3
:101320000070004010B5401EB0F1807F01D3012055
:1013300010BD4FF0E02460610F21601700F0A6FCA3
:101340000020A06107202061002010BD70B50400BE
:1013500004D094F84100002510B106E0012070BDD2
:1013600084F84050204600F023F8242084F84100FF
:101370002068C16821F40051C160204600F0E0FB04
:101380002068016921F4904101612068416921F0E0
:101390002A0141612068C16841F40051C16065645F
:1013A000202084F8410084F842006563002070BD6D
:1013B00030B585B000240094019402940394006831
:1013C0001449884224D11448816941F480418161E3
:1013D000816901F480410491816941F004018161D6
:1013E00080690E4D00F0040004904FF400700090EE
:1013F000022001900320039069462846FFF7CEFAA9
:101400002815CDE90004694628460294FFF7C6FA7C
:1014100005B030BD00380140001002400008014016
:101420002DE9F843044690F84100984616460D46CB
:10143000202802D00220BDE8F88385B17EB10020CB
:101440006064212084F84100FFF7A2FBA684814656
:10145000E684A0682027B0F5805F02D003E0012079
:10146000E9E7206910B12E4600250EE000260CE0C9
:101470008021204600F0C0FBA8B9C6B116F8010BC8
:1014800021684860E08C401EE084E08C4B464FF0C1
:101490000002CDF800800028EAD14FF0400120463C
:1014A00000F0AAFB40B184F841700320C3E735F88F
:1014B000020BC0F30800E3E784F841700020BAE7AC
:1014C000FEE7000070B501220E4D94032146284628
:1014D000FFF759FB0122560331462846FFF753FB1D
:1014E00000F048F8002221462846FFF74CFB00F0A8
:1014F00041F8002231462846FFF745FBBDE8704021
:1015000000F038B80010014070B50B4D4FF4804426
:10151000002221462846FFF736FB012251032846C8
:10152000FFF731FB00F026F821462846BDE8704061
:101530000122FFF728BB00000010014070B50C4CE1
:10154000012291032046FFF71EFB00F013F8012251
:10155000550329462046FFF716FB00F00BF8002242
:1015600029462046FFF70FFBBDE8704000F002B8A7
:10157000001001406420401E80B2FCD27047000081
:101580003EB500211148009101910F4A029102607D
:1015900081600173017501244FF460220461C2610E
:1015A0004160FFF707F808B1FEF77FFF0720CDE99C
:1015B0000004029069460548FEF77AFF002801D032
:1015C000FEF773FF3EBD0000002401401400002020
:1015D000F0B585B000200090019002900390224861
:1015E000816941F010018161816901F0100104916C
:1015F000816941F020018161816901F0200104913C
:10160000816941F004018161816901F00401049163
:10161000816941F0080181618069144E00F0080081
:101620004FF4C0440490012221463046FFF7ABFA44
:101630000F4F012220213846FFF7A5FA009401241C
:101640000325694630460194CDE90245FFF7A6F926
:101650002020CDE9000469463846CDE90245FFF770
:101660009DF905B0F0BD00000010024000100140DF
:10167000000C01400C4810B50A4901604FF4E131FB
:101680004160002181600C22C160C0E904128161C7
:10169000C161FFF75BFE002803D0BDE81040FEF7F4
:1016A00004BF10BD0038014044000020FEE7FEE703
:1016B00030B40021084B0A465FF0000003EB8004C1
:1016C000401CC0B262548028F8D3491CC9B2042916
:1016D000F2D330BC00F08EB88C00002030B5CC08BE
:1016E00001F0070301259D40EBB2064D05EB800597
:1016F000C808285C0AB1184302E063EA0000C0434E
:10170000285530BD8C00002010B50021AE2000F01F
:101710006CF90021084600F068F90021102000F063
:1017200064F90021402000F060F90021812000F0E0
:101730005CF900217F2000F058F90021A12000F081
:1017400054F90021C82000F050F90021A62000F033
:101750004CF90021A82000F048F900211F2000F0DA
:1017600044F90021D32000F040F90021084600F0A0
:101770003CF90021D52000F038F90021802000F04C
:1017800034F90021D92000F030F90021222000F0A6
:101790002CF90021DA2000F028F90021022000F0C5
:1017A00024F90021DB2000F020F90021202000F0A6
:1017B0001CF90021202000F018F90021022000F07F
:1017C00014F900218D2000F010F90021142000F000
:1017D0000CF9FFF76DFF0021BDE81040AF2000F0CD
:1017E00004B90246012000E05043491EC9B2FBD2B1
:1017F0007047000070B5184E002400BF04F1B0001F
:10180000C0B2002100F0F1F80021084600F0EDF828
:101810000021102000F0E9F8FFF754FE782000F0D6
:1018200001F9FFF78BFE402000F0FCF8FFF786FE81
:101830005FF0000506EB8500005D00F0F3F8FFF7B0
:101840007DFE6D1CEDB2802DF4D3FFF75DFE641CB0
:10185000E4B2042CD2D370BD8C0000202DE9FC4FE3
:101860001C460E4682468B460190082B0DD0600721
:1018700000D0012000EBD40061084843C0B281468B
:10188000203AD0B2009000204BE00620F7E7082C69
:1018900013D00C2C18D0102C1BD0182C44D100982D
:1018A000234900EBC00000BF01EB8001002711F8C5
:1018B0000850E80712D00B9A13E000981D4900EB7E
:1018C000400001EB4001F1E700981B4900EB4000AC
:1018D000EAE71A49009801EB0011E7E70B9828B3F3
:1018E000002231465046FFF7F9FE761C7F1C6D083A
:1018F000FFB2F6B2082FDCD30AF1010000F0FF0AB4
:10190000082C0AD00199AAEB0100B0EB540F04D1C6
:101910000BF108008A4600F0FF0B08F101005E465B
:10192000C0B280464845B2D3BDE8FC8F0122D8E75B
:10193000742C0008E81F0008102200088426000804
:101940002DE9F84F0025DDE90A691F4692468B46CE
:101950008046082E00D1022500241CE0381B401EC2
:10196000C1B20A20FFF73DFFBAFBF0F00A21B0FB3D
:10197000F1F201FB1200CDF8009080B13030C2B21C
:1019800005EB560101FB0480C0B233465946FFF710
:1019900065FF641CE4B2BC42E0D3BDE8F88F05EB00
:1019A000560101FB0480C0B233463022EEE72DE938
:1019B000F8411E46154688460446079F0BE033460D
:1019C000414620460097FFF749FF082E0AD004EB56
:1019D0005600C4B26D1C2A78A2F120005E28EED910
:1019E000BDE8F881A41DE4B2F4E770B50C460546E5
:1019F000FFF768FD782000F015F8FFF79FFD0CB1A8
:101A0000402000E0002000F00DF8FFF797FD284689
:101A100000F008F8FFF792FDBDE87040FFF774BDD5
:101A2000704770472DE9F041124F002405464FF4EE
:101A300080487E14280601D5012200E0002241469C
:101A40003846FFF7A0F8FFF795FD012231463846EA
:101A5000FFF799F8FFF78EFD002231463846FFF771
:101A600092F86806641C050EE4B2082CE2D3BDE8C7
:101A7000F081000000100140FFF790B830B593B03E
:101A800028216846FEF755FB14210AA8FEF751FBF2
:101A90000024012108040F94109412940491CDE9BC
:101AA0000010CDE9080411940294022507956846B8
:101AB000FFF7A8FA08B172B6FEE70F20CDE90A05D4
:101AC0004FF48060CDE90C4000210AA80E94FFF786
:101AD000B7F908B172B6FEE70FA80F951194FFF79A
:101AE00039F9002801D072B6FEE713B030BD704757
:101AF00001680C3151E8002F22F4907241E8002374
:101B0000002BF5D10168143151E8002F22F00102B9
:101B100041E80023002BF5D1016B012909D10168AF
:101B20000C3151E8002F22F0100241E80023002B75
:101B3000F5D1202180F84210002101637047000098
:101B400070B5044600680169E26821F44051114310
:101B500001612169A0680843616908432168CA6876
:101B600041F20C639A430243CA6020684169A2694A
:101B700021F44071114341611E492068884202D11D
:101B8000FFF70AFA01E0FFF7F7F900EBC00101EBFC
:101B90000012606864218000B2FBF0F3B3FBF1F344
:101BA0006FF018067343B2FBF0F5B2FBF0F605EBED
:101BB0008305322303EB0515B5FBF1F5B6FBF1F612
:101BC00005F0F00505EB0615B2FBF0F6B2FBF0F000
:101BD000B0FBF1F06FF01802504306EB800003EB0E
:101BE0000010B0FBF1F0216800F00F00284488607D
:101BF00070BD0000003801402DE9F84398461746B3
:101C00000D460446089E24E0701C22D0FEF7C0FF5B
:101C1000A0EB0800B0421AD8CEB12068C1684907CD
:101C200017D5802D15D0402D13D00168C943090761
:101C30000FD401680025406800902046FFF758FF48
:101C40000820606484F840500120BDE8F883032038
:101C5000FBE72068006835EA000004D00020B842A5
:101C6000D2D00020F1E70120F9E7FEE70FB4054BE1
:101C700010B503A9044A029800F028F810BC5DF8DA
:101C800014FB0000211E0008100000200907090EA7
:101C9000002804DB00F1E02080F80014704700F019
:101CA0000F0000F1E02080F8141D704702E008C822
:101CB000121F08C1002AFAD170477047002001E0C6
:101CC00001C1121F002AFBD1704700002DE9FF4F10
:101CD00089B09B460446002506E025280BD05A46CD
:101CE0000B999047641C6D1C20780028F5D10DB02D
:101CF0002846BDE8F08F0027B8460122474900E09A
:101D0000074314F8013F203B02FA03F00842F7D1E1
:101D100020782E2819D114F8010F47F004072A283B
:101D20000ED06FF02F022078A0F1300109290CD8D5
:101D300008EB880102EB410100EB0108641CF2E7AB
:101D40000A98641C50F8048B0A9020780028CED0A2
:101D5000642808D0692806D075281ED05A460B99E9
:101D600090476D1C58E00A994FF00A0901C90A9181
:101D7000002802DA40422D2102E0390504D52B214A
:101D80008DF82010012103E0F90704D02021F7E7A6
:101D90008A4608AE0DE00021FAE70A994FF00A09D9
:101DA00001C90A91F7E74946FEF7CEF9303106F846
:101DB000011D0028F7D1ADEB060000F120097807DE
:101DC00001D44FF00108C84502DDA8EB090000E08E
:101DD00000208046002706E008A85A46C05D0B99FF
:101DE00090476D1C7F1C5745F6DB04E030205A46B7
:101DF0000B9990476D1CB8F10001A8F10108F5DCC2
:101E000005E016F8010B5A460B9990476D1CB9F185
:101E10000001A9F10109F4DC641C65E7092801004F
:101E200013B54FF0FF33012269460248FFF7F8FA75
:101E300000981CBD4400002088B0FEF7B7FEFFF7F5
:101E40001DFEFFF7C5FBFFF715FCFFF799FB4DA043
:101E5000FFF70CFFFFF758FCFFF72AFC01240825C9
:101E60004FF4FA66FFF724FC02A8FEF797FA002861
:101E70004DD10021082345A208460094FFF797FDA5
:101E8000CDE900549DF80820022300210A20FFF725
:101E900057FD08232E22002119200094FFF7DEFCB5
:101EA000CDE900549DF80920012300211E20FFF7F1
:101EB00047FD08232522002126200094FFF7CEFCB1
:101EC000082333A2002141200094FFF770FDCDE9E3
:101ED00000549DF80A20022300214B20FFF730FD1B
:101EE00008232E2200215A200094FFF7B7FCCDE9E9
:101EF00000549DF80B20012300215F20FFF720FDF7
:101F000008234322002167200094FFF7A7FC06AABC
:101F100005A904A8FEF7AAF908231EA21946002065
:101F20000094FFF744FDCDE900540423BDF81020D0
:101F300008211E20FFF704FD082318A2102100200D
:101F40000094FFF734FDCDE900540423BDF81420BC
:101F500010212820FFF7F4FC082312A218210020EA
:101F60000094FFF724FDCDE900540423BDF81820A8
:101F700018212820FFF7E4FCFFF73CFC3046FEF771
:101F8000FBFC6FE7676F0D0A00000000483A000095
:101F9000543A00004D51353A000000004E6F69730D
:101FA000653A00004C696768743A00000102020358
:101FB0000405060708090A0B0C0D0E0F101001028C
:101FC00002030405060708090A0B0C0D0E0F10107A
:101FD00000000000000000000102030406070809D9
:101FE00000000000010203040000000000000000E7
:101FF000002F000000000700070000147F147F146A
:1020000000242A7F2A1200626408132300364955EF
:10201000225000000503000000001C2241000000C7
:1020200041221C000014083E08140008083E08085D
:10203000000000A0600000080808080800006060B8
:102040000000002010080402003E5149453E0000F7
:10205000427F4000004261514946002141454B31D9
:10206000001814127F10002745454539003C4A49A5
:102070004930000171090503003649494936000617
:102080004949291E0000363600000000563600007F
:1020900000081422410000141414141400004122FA
:1020A000140800020151090600324959513E007CD2
:1020B0001211127C007F49494936003E41414122BC
:1020C000007F4141221C007F49494941007F0909A5
:1020D0000901003E4149497A007F0808087F000055
:1020E000417F4100002040413F01007F0814224110
:1020F000007F40404040007F020C027F007F0408C8
:10210000107F003E4141413E007F09090906003E23
:102110004151215E007F091929460046494949314C
:102120000001017F0101003F4040403F001F20406F
:10213000201F003F4038403F00631408146300072D
:102140000870080700615149454300007F41410084
:1021500000552A552A55000041417F000004020124
:102160000204004040404040000001020400002002
:1021700054545478007F4844443800384444442040
:1021800000384444487F00385454541800087E09ED
:1021900001020018A4A4A47C007F080404780000B5
:1021A000447D4000004080847D00007F1028440072
:1021B0000000417F4000007C04180478007C080483
:1021C000047800384444443800FC242424180018BF
:1021D000242418FC007C08040408004854545420AB
:1021E00000043F444020003C4040207C001C204034
:1021F000201C003C4030403C004428102844001C77
:10220000A0A0A07C004464544C441414141414146E
:102210000000000000000000000000000000FC00C2
:102220000000000002000000000C020C0200000090
:102230000000000090D0BCD0BC9000030003000060
:102240001824FE448C000302070201001824D8B0B1
:102250004C80000300010201C038E438E0000102B4
:102260000201020208060000000000000000000059
:10227000000000F80402000000010204000204F85B
:1022800000000004020100009060F860900000006F
:10229000010000002020FC202000000001000000C0
:1022A00000000000000008060000000020202020A0
:1022B00020000000000000000000000000000002FC
:1022C000000000000080601C020004030000000009
:1022D000F8040404F8000102020201000008FC00F6
:1022E00000000002030200001884442418000302C6
:1022F0000202020008042424D800010202020100A4
:1023000040B088FC80000000000302003C2424242C
:10231000C400010202020100F824242CC0000102C2
:10232000020201000C04E41C040000000300000091
:10233000D8242424D8000102020201003844444475
:10234000F80000030202010000001000000000007D
:102350000200000000002000000000000600000055
:10236000002050880402000000000102909090902C
:1023700090000000000000000002048850200002CD
:10238000010000001804C42418000000020000002E
:10239000F804E494F80001020202020000E09CF05C
:1023A000800002030000030204FC2424D80002037E
:1023B00002020100F80404040C0001020202010000
:1023C00004FC0404F80002030202010004FC24746B
:1023D0000C0002030202030004FC24740C0002033C
:1023E00002000000F0080444CC4000010202010099
:1023F00004FC2020FC040203000003020404FC048B
:102400000400020203020200000404FC04040604A7
:102410000403000004FC24D00C04020302000302A5
:1024200004FC04000000020302020203FC3CC03C66
:10243000FC0003000300030004FC30C4FC0402039E
:1024400002000300F8040404F80001020202010083
:1024500004FC24241800020302000000F884840411
:10246000F80001020207050004FC2464980002033E
:1024700002000302182424448C000302020201001B
:102480000C04FC040C0000020302000004FC000029
:10249000FC04000102020100047C80E01C04000036
:1024A000030000001CE03CE01C00000300030000EF
:1024B000049C609C0400020300030200041CE01C56
:1024C00004000002030200000C84641C04000203E8
:1024D000020203000000FE020200000007040400E4
:1024E000000E30C00000000000010200000202FEE9
:1024F00000000004040700000004020400000000C3
:10250000000000000000000000000808080808089B
:102510000000020000000000000000000040A0A039
:10252000C00000010202030204FC2020C0000003DE
:102530000202010000C0202060000001020202002F
:1025400000C02024FC0000010202030200C0A0A081
:10255000C0000001020202000020F824240400024E
:10256000030202000040A0A0602000070A0A0A043B
:1025700004FC2020C0000203020003020020E4004B
:102580000000000203020000000020E40000080830
:102590000807000004FC80E0202002030200030280
:1025A0000404FC000000020203020200E020E0201C
:1025B000C00003000300030020E02020C00002034D
:1025C0000200030200C02020C0000001020201003E
:1025D00020E02020C000080F0A02010000C02020D7
:1025E000E0000001020A0F0820E040202000020362
:1025F000020000000060A0A0200000020202030010
:102600000020F820000000000102020020E000206D
:10261000E00000010202030220E0208060200000B0
:10262000030100006080E080600000030003000000
:1026300020608060200002030003020020E0208070
:1026400060200808070100000020A06020000002B0
:1026500003020200000020DE020000000007040068
:10266000000000FF00000000000F00000002DE205C
:102670000000000407000000020102040402000040
:10268000000000000000000000000000000000004A
:1026900000000000000000F800000000000000330F
:1026A0003000000000100C06100C060000000000B6
:1026B0000000000040C07840C0784000043F04049F
:1026C0003F040400007088FC08300000001820FF60
:1026D000211E0000F008F000E018000000211C039B
:1026E0001E211E0000F00888700000001E21232417
:1026F0001927211010160E00000000000000000035
:1027000000000000000000E01804020000000007C4
:102710001820400000020418E000000000402018CB
:1027200007000000404080F0804040000202010F9E
:1027300001020200000000F0000000000101011F82
:1027400001010100000000000000000080B07000E6
:102750000000000000000000000000000001010176
:102760000101010100000000000000000030300005
:1027700000000000000000008060180400601806DF
:102780000100000000E010080810E000000F102019
:1027900020100F00001010F8000000000020203F63
:1027A00020200000007008080888700000302824ED
:1027B000222130000030088888483000001820208E
:1027C00020110E000000C02010F8000000070424B3
:1027D000243F240000F808888808080000192120F8
:1027E00020110E0000E0108888180000000F112052
:1027F00020110E0000380808C83808000000003F0B
:10280000000000000070880808887000001C222169
:1028100021221C0000E010080810E0000000312216
:1028200022110F00000000C0C000000000000030B6
:102830003000000000000080000000000000806008
:102840000000000000008040201008000001020489
:102850000810200040404040404040000404040470
:10286000040404000008102040800000002010082C
:1028700004020100007048080808F0000000003061
:1028800036010000C030C828E810E00007182724EF
:1028900023140B000000C038E0000000203C23029D
:1028A0000227382008F8888888700000203F202000
:1028B00020110E00C0300808080838000718202032
:1028C0002010080008F808080810E000203F202029
:1028D00020100F0008F88888E8081000203F20200A
:1028E0002320180008F88888E8081000203F2000FE
:1028F00003000000C0300808083800000718202036
:10290000221E020008F808000008F808203F2101F4
:1029100001213F20000808F8080800000020203F9F
:102920002020000000000808F8080800C08080800F
:102930007F00000008F888C028180800203F200108
:102940002638200008F8080000000000203F202062
:102950002020300008F8F800F8F80800203F003F79
:10296000003F200008F830C00008F808203F200091
:1029700007183F00E01008080810E0000F102020A2
:1029800020100F0008F808080808F000203F210177
:1029900001010000E01008080810E0000F182424CE
:1029A00038504F0008F8888888887000203F200041
:1029B000030C3020007088080808380000382021F7
:1029C00021221C00180808F8080818000000203F01
:1029D0002000000008F808000008F808001F202068
:1029E00020201F000878880000C838080000073839
:1029F0000E010000F80800F80008F800033C07008A
:102A0000073C0300081868808068180820302C03F1
:102A1000032C30200838C800C83808000000203FC8
:102A20002000000010080808C838080020382621B7
:102A300020201800000000FE020202000000007FBB
:102A400040404000000C30C00000000000000001C9
:102A50000638C00000020202FE00000000404040B4
:102A60007F000000000004020202040000000000D9
:102A70000000000000000000000000008080808056
:102A8000808080800002020400000000000000003E
:102A900000000000000080808080000000192422D7
:102AA00022223F2008F8008080000000003F112013
:102AB00020110E000000008080800000000E112018
:102AC00020201100000000808088F800000E1120F6
:102AD00020103F200000808080800000001F222204
:102AE00022221300008080F0888888180020203F70
:102AF000202000000000808080808000006B949483
:102B00009493600008F8008080800000203F21003E
:102B100000203F2000809898000000000020203F07
:102B200020200000000000809898000000C08080F5
:102B3000807F000008F8000080808000203F240291
:102B40002D302000000808F8000000000020203F81
:102B5000202000008080808080808000203F200036
:102B60003F20003F8080008080800000203F2100C7
:102B700000203F200000808080800000001F202077
:102B800020201F00808000808000000080FFA120A6
:102B900020110E000000008080808000000E1120B7
:102BA00020A0FF80808080008080800020203F2146
:102BB00020000100000080808080800000332424F9
:102BC00024241900008080E0808000000000001FA5
:102BD000202000008080000000808000001F202056
:102BE00020103F20808080000080808000010E3017
:102BF0000806010080800080008080800F300C0378
:102C00000C300F0000808000808080000020312E7A
:102C10000E312000808080000080808080818E7056
:102C20001806010000808080808080000021302C08
:102C30002221300000000000807C02020000000021
:102C4000003F404000000000FF00000000000000C6
:102C5000FF0000000002027C800000000040403FB6
:102C60000000000000060101020204040000000050
:102C70000000000000000000000000000000000054
:102C80000000000000000000000000000000000044
:102C900000000000000000000000000000F0F0F064
:102CA000000000000000000000017F0100000000A3
:102CB00000000000001C1C1C0000000000008060E0
:102CC000301C8C60301C0C00000000000000000074
:102CD00000000000000000000000000000000000F4
:102CE000000000E00000000000E000000086E69F19
:102CF00086868686E69F860000011F01010101018C
:102D00001F010100000080C06020F820E0C000002A
:102D1000000003070C18FF70E18100000000070F9E
:102D200010107F100F0700008060206080000000FE
:102D3000E02000000F3020309F70DC371030C000E2
:102D40000000100E03000718101807000000C02034
:102D500020E0C0000000000080E01F38E88703C4C6
:102D60003C040000070F1810100B070D101008008E
:102D700000808C4C380000000000000000000000C3
:102D80000000000000000000000000000000000043
:102D90000000000000000000000080E03008040097
:102DA0000000000000FEFF01000000000000000025
:102DB0000000030F1820400000040830E0800000ED
:102DC000000000000000000001FFFE000000000005
:102DD000004020180F030000000000000000000069
:102DE0000000C00000000000004266663C18FF18AA
:102DF0003C66664200000000000003000000000086
:102E00000000000000008000000000000010101012
:102E10001010FF1010101010000000000000030040
:102E200000000000000000000000000000000000A2
:102E300000000000000000000000000000808C4C3A
:102E4000380000000000000000000000000000004A
:102E500000000000001010101010101010101000D2
:102E60000000000000000000000000000000000062
:102E70000000000000000000000000000000000052
:102E80000000000000001C1C1C00000000000000EE
:102E90000000000000000000E0380C00000000000E
:102EA00080701C03000000000060380E010000006C
:102EB00000000000000080C060202060C080000092
:102EC00000FEFF010000000001FFFE000001070EF0
:102ED000181010180E0701000000808080C0E0006C
:102EE000000000000000000000FFFF0000000000E4
:102EF00000001010101F1F10101000000080402054
:102F000020202060C08000000003030080402038A3
:102F10001F070000001C1A1918181818181F0000A5
:102F20000080C020202060C080000000000303005B
:102F30001010182FE780000000070F101010101855
:102F40000F070000000000000000C0E0F0000000DB
:102F500000C0B088868180FFFF80800000000000F4
:102F60000010101F1F1010000000E0606060606023
:102F70006060000000003F1008080818F0E0000042
:102F800000070B101010101C0F030000000080C081
:102F900040202020E0C0000000FCFF2110080808AD
:102FA00018F0E0000001070C18101010080F0300C3
:102FB0000000C0E06060606060E06000000003004E
:102FC0000000E0180700000000000000001F1F00C4
:102FD000000000000080C0602020202060C0800031
:102FE0000087EF2C1818303068CF830000070F08D7
:102FF00010101010180F07000000C0C02020202063
:10300000C0800000001F3F604040402010FFFE00D5
:1030100000000C1C101010080F030000000000003E
:10302000000000000000000000000000000E0E0E76
:103030000000000000000000001C1C1C000000003C
:103040000000000000000000000000000000000080
:10305000000C0C00000000000000000000583800C8
:103060000000000000000000000000804020100070
:103070000000102844820100000000000000000051
:103080000000010204081000000000000000000021
:103090000000000000848484848484848484840008
:1030A00000000000000000000000000000001020F0
:1030B00040800000000000000000000000000182CD
:1030C0004428100000001008040201000000000065
:1030D00000C020201010101030E0C00000030300DA
:1030E00000F010080C070300000000001C1C1C006E
:1030F00000000000000000C0406020202040C00010
:1031000000FCFF01F00E03C1FE03807F0001070EEB
:1031100008111110110904020000000080E0E00015
:10312000000000000000807C4340477FF8800000E2
:1031300010181F1000000000131F1C1020E0E020DA
:1031400020202060C080000000FFFF101010101829
:103150002FE78000101F1F1010101010180F07000D
:10316000000080C0402020202060E00000FCFF0123
:1031700000000000000001000001070E18101010F0
:103180000804030020E0E02020202040C080000050
:1031900000FFFF000000000001FFFE00101F1F10D5
:1031A000101018080E07010020E0E0202020202049
:1031B0002060800000FFFF101010107C0000000055
:1031C000101F1F10101010101018060020E0E02033
:1031D000202020206060800000FFFF101010107C75
:1031E00000000100101F1F10000000000000000080
:1031F000000080C06020202040E0000000FCFF01B3
:1032000000004040C0C140400001070E18101010DF
:103210000F0F000020E0E0200000000020E0E02090
:1032200000FFFF101010101010FFFF00101F1F10E4
:1032300000000000101F1F100000202020E0E020F0
:10324000202000000000000000FFFF000000000040
:1032500000001010101F1F101010000000000000D0
:10326000202020E0E020202000000000000000FFDF
:10327000FF0000000060E0808080C07F3F00000011
:1032800020E0E020000020A06020200000FFFF30B0
:10329000187CE3C000000000101F1F100000011385
:1032A0001F1C181020E0E0200000000000000000BB
:1032B00000FFFF000000000000000000101F1F10B2
:1032C000101010101018060020E0E0E000000000D0
:1032D000E0E0E02000FF013FFEC0E01E01FFFF0034
:1032E000101F1000031F0300101F1F1020E0E0C07C
:1032F000000000000020E02000FF0003071C78E031
:103300008000FF00101F100000000000030F1F00CE
:10331000000080C060202060C080000000FEFF012F
:103320000000000000FFFE000001070E181010183A
:103330000C07010020E0E0202020202060C0800059
:1033400000FFFF2020202020301F0F00101F1F1023
:103350000000000000000000000080C0602020602D
:10336000C080000000FEFF010000000000FFFE0022
:103370000001070E1111133C7C67210020E0E020C2
:103380002020202060C0800000FFFF101030F0D00F
:10339000080F0700101F1F10000000030F1C101063
:1033A0000080C060202020204040E00000070F0C7B
:1033B0001818303060E08100001F0C081010101049
:1033C000180F07008060202020E0E020202060808F
:1033D0000100000000FFFF000000000100000000ED
:1033E000101F1F100000000020E0E020000000007F
:1033F0000020E02000FFFF00000000000000FF00B0
:1034000000070F1810101010100807002060E0E0EF
:103410002000000020E060200000077FF88000808E
:103420007C03000000000000071F1C0700000000D4
:1034300020E0E02000E0E0200020E0200007FFF88E
:10344000E01FFFFCE01F00000000031F0300011F3E
:1034500003000000002060E0A0000020E0602000E9
:10346000000000038F7CF8C6010000000010181E49
:10347000130001171F1810002060E0E0200000007A
:1034800020E06020000001073EF8E018070000007F
:1034900000000010101F1F101000000000806020AE
:1034A000202020A0E0E0200000000000C0F03E0F3F
:1034B0000300000000101C1F171010101018060049
:1034C0000000000000FC04040404040000000000EC
:1034D00000FF00000000000000000000007F4040EE
:1034E00040404000000010E000000000000000002C
:1034F00000000000031C60800000000000000000CD
:10350000000000030C70800000000404040404FCAC
:103510000000000000000000000000FF00000000AC
:10352000000040404040407F0000000000000010CC
:10353000080C040C0810000000000000000000004F
:10354000000000000000000000000000000000007B
:10355000000000000000000000000000000000006B
:10356000000000000000000080808080808080805B
:103570008080808000000004040808000000000033
:10358000000000000000000000000000000000003B
:10359000000000000000000000000000000000002B
:1035A00000000000000098D844642424FCF80000C7
:1035B000000F1F18101010081F1F10180020E0F037
:1035C00000000000000000000000FFFF18080404D5
:1035D0000CF8F00000001F0F18101010180F030057
:1035E00000000000000000000000000000E0F818EB
:1035F0000404043C3800000000030F0C10101010ED
:10360000080600000000000000000020E0F00000BC
:1036100000E0F81C04040408FFFF000000030F187A
:10362000101010081F0F080000000000000000002C
:10363000000000000000E0F8484444444C7870006A
:103640000000030F0C181010100804000000000008
:1036500080C0602020E0C00000040404FFFF0404D8
:1036600004040000000010101F1F101010000000C4
:10367000000000000000000000000000000070F8E2
:103680008C04048CF874040C007076CF8D8D8D89B9
:10369000C87870000020E0F000000000000000008A
:1036A0000000FFFF08040404FCF8000000101F1FC6
:1036B000100000101F1F10000000000000606000DC
:1036C000000000000000040404FCFC0000000000F6
:1036D00000001010101F1F1010100000000000004C
:1036E000000000606000000000000000040404FC12
:1036F000FC0000000000C0C08080C07F3F000000D0
:103700000020E0F000000000000000000000FFFFCB
:1037100080C0F41C0404000000101F1F1100031FD0
:103720001C1010000000202020E0F000000000002D
:103730000000000000FFFF0000000000000010106B
:10374000101F1F10101000000000000000000000FB
:103750000000000004FCFC0804FCFC0804FCFC0065
:10376000101F1F10001F1F10001F1F10000000005F
:1037700000000000000000000004FCFC0808040435
:10378000FCF8000000101F1F100000101F1F100089
:1037900000000000000000000000000000E0F01841
:1037A0000C04040C18F0E00000030F0C10101010B3
:1037B0000C0F0300000000000000000000000000EB
:1037C0000004FCFC080404040CF8F0000080FFFF77
:1037D000889010101C0F0300000000000000000083
:1037E0000000000000E0F81C04040408F8FC0000DD
:1037F00000030F1810109088FFFF800000000000E9
:103800000000000000000000040404FCFC10080498
:10381000040C0C001010101F1F10101000000000EE
:1038200000000000000000000000000000003078F0
:10383000CCC48484840C1C0000001E1810101011CD
:10384000190F06000000000000C00000000000008A
:1038500000040404FFFF0404040000000000000052
:103860000F1F1010100C00000000000000000000EE
:10387000000000000004FCFE00000004FCFE00004C
:1038800000000F1F181010081F0F08000000000094
:10389000000000000000000000040C3CFCC400001C
:1038A000C43C0C0400000000010F1E0E01000000CB
:1038B000000000000000000000000000043CFCC408
:1038C00000E47CFC84807C040000071F07000007E4
:1038D0001F070000000000000000000000000000C2
:1038E0000004041C7CE4C0341C0404000010101C00
:1038F0001601131F1C18100000000000000000003B
:103900000000000000040C3CFCC400C43C040400A3
:103910000000C080C1370E01000000000000000060
:10392000000000000000000000001C0404C4F47C3F
:103930001C0400000000101C1F17111010180E00AE
:1039400000000000000000F80C040000000000006F
:10395000001028EF00000000000000000000003F01
:1039600060400000000000000000FF0000000000B8
:10397000000000000000FF00000000000000000048
:103980000000FF00000000000000040CF800000030
:103990000000000000000000EF2810000000000000
:1039A000000040603F000000000000000018060218
:1039B0000204081020203008000000000000000071
:1039C00000000000000000000000000000000000F7
:1039D000F03900080000002014000000AC1C0008B2
:1039E000043A0008140000207C060000BC1C0008FB
:1039F00001000000100000000000000000127A002A
:043A000000000000C2
:04000005080000ED02
:00000001FF
